S0230000636172696F6D6172745F6D73735F4D53535F434D335F305F6170702E73726563EA
S315200000000000012099020020090300200B03002094
S315200000100D0300200F030020110300200000000024
S315200000200000000000000000000000001303002074
S3152000003015030020000000001703002019030020EC
S315200000401B0300201D0300201F0300202103002086
S315200000502303002025030020270300202903002056
S315200000602B0300202D0300205D1900208919002074
S3152000007033030020350300203703002039030020F6
S315200000803B0300203D0300203F03002041030020C6
S31520000090B10E00204503002047030020490300201D
S315200000A04B030020000000000000000000000000BC
S315200000B00000000000000000000000004D030020AA
S315200000C04F03002051030020530300205503002036
S315200000D057030020590300205B0300205D03002006
S315200000E05F030020610300206303002065030020D6
S315200000F067030020690300206B0300206D030020A6
S315200001006F03002071030020730300207503002075
S3152000011077030020790300207B0300207D03002045
S315200001207F03002081030020830300208503002015
S3152000013087030020890300208B0300208D030020E5
S315200001408F030020910300209303002095030020B5
S3152000015097030020990300209B0300209D03002085
S315200001609F030020A1030020A3030020A503002055
S31520000170A7030020A9030020AB030020AD03002025
S31520000180AF030020B1030020B3030020B5030020F5
S31520000190B7030020B9030020BB030020BD030020C5
S315200001A0BF030020C1030020C3030020C503002095
S315200001B0C7030020C9030020CB030020CD03002065
S315200001C0CF030020D1030020D3030020D503002035
S315200001D0D7030020D9030020DB030020DD03002005
S315200001E0DF030020E1030020E3030020E5030020D5
S315200001F0E7030020E9030020EB030020ED030020A5
S31520000200EF030020F1030020F3030020F503002074
S31520000210F7030020F9030020FB030020FD03002044
S31520000220FF03002001040020030400200504002011
S3152000023007040020090400200B0400200D040020E0
S315200002400F040020110400201304002015040020B0
S3152000025017040020190400201B0400201D04002080
S315200002601F04002021040020230400202504002050
S3152000027027040020290400202B0400202D04002020
S315200002802F040020310400203304002035040020F0
S315200002903704002039040020684880476848002831
S315200002A00BD168486849694A884206D091421CBFEA
S315200002B050F8043B41F8043BF8D165486549664A45
S315200002C0884206D091421CBF50F8043B41F8043BBB
S315200002D0F8D162486249634A914218BF41F8040B3B
S315200002E0FAD100000000000000000000000000001D
S315200002F0DFF874010FF2030E00474FF000004FF0B5
S315200003000001DFF868F1FEE7FEE7FEE7FEE7FEE71D
S31520000310FEE7FEE7FEE7FEE7FEE7FEE7FEE7FEE78F
S31520000320FEE7FEE7FEE7FEE7FEE7FEE7FEE7FEE77F
S31520000330FEE7FEE7FEE7FEE7FEE7FEE7FEE7FEE76F
S31520000340FEE7FEE7FEE7FEE7FEE7FEE7FEE7FEE75F
S31520000350FEE7FEE7FEE7FEE7FEE7FEE7FEE7FEE74F
S31520000360FEE7FEE7FEE7FEE7FEE7FEE7FEE7FEE73F
S31520000370FEE7FEE7FEE7FEE7FEE7FEE7FEE7FEE72F
S31520000380FEE7FEE7FEE7FEE7FEE7FEE7FEE7FEE71F
S31520000390FEE7FEE7FEE7FEE7FEE7FEE7FEE7FEE70F
S315200003A0FEE7FEE7FEE7FEE7FEE7FEE7FEE7FEE7FF
S315200003B0FEE7FEE7FEE7FEE7FEE7FEE7FEE7FEE7EF
S315200003C0FEE7FEE7FEE7FEE7FEE7FEE7FEE7FEE7DF
S315200003D0FEE7FEE7FEE7FEE7FEE7FEE7FEE7FEE7CF
S315200003E0FEE7FEE7FEE7FEE7FEE7FEE7FEE7FEE7BF
S315200003F0FEE7FEE7FEE7FEE7FEE7FEE7FEE7FEE7AF
S31520000400FEE7FEE7FEE7FEE7FEE7FEE7FEE7FEE79E
S31520000410FEE7FEE7FEE7FEE7FEE7FEE7FEE7FEE78E
S31520000420FEE7FEE7FEE7FEE7FEE7FEE7FEE7FEE77E
S31520000430FEE7FEE7FEE7FEE7FEE70000B51900202F
S3152000044000000000000000200000002018290020E5
S315200004501829002018290020382E0020000000002E
S31520000460382E0020F02E0020F91B0020D10E00206F
S3152000047042F63863C2F200031A780AB901201870CE
S31520000480704700BF42F61810C2F2000008B5036894
S315200004902BB140F20003C0F2000303B1984708BD18
S315200004A080B483B000AF0346FB804EF20013CEF239
S315200004B00003B7F906204FEA5212F98801F01F010E
S315200004C04FF0010000FA01F143F8221007F10C0762
S315200004D0BD4680BC704700BF80B483B000AF0346E2
S315200004E0FB804EF20013CEF20003B7F906204FEA46
S315200004F05212F98801F01F014FF0010000FA01F1B4
S3152000050002F1200243F8221007F10C07BD4680BCF9
S31520000510704700BF80B483B000AF0346FB804EF225
S315200005200013CEF20003B7F906204FEA5212F988DB
S3152000053001F01F014FF0010000FA01F102F1600203
S3152000054043F8221007F10C07BD4680BC704700BF58
S3152000055080B582B000AF0346FB714FF01400FFF761
S31520000560BBFF42F20003CEF2040342F20002CEF2B7
S315200005700402126B22F040021A6345F20003C4F211
S3152000058000034FF000025A6540F20003C4F20A232A
S315200005904FF00002C3F8802140F20003C4F20A2380
S315200005A04FF00002C3F8882140F20003C4F20A2368
S315200005B0FA79C3F8842145F20003C4F200034FF010
S315200005C001021A614FF01400FFF7A4FF07F1080794
S315200005D0BD4680BD80B400AF40F20003C4F20A23BA
S315200005E04FF00102C3F88021BD4680BC704700BF92
S315200005F080B483B000AF786045F20003C4F20003F4
S315200006007A689A6007F10C07BD4680BC704700BF28
S3152000061080B500AF40F20003C4F20A234FF0010276
S31520000620C3F888214FF01400FFF73AFF80BD00BFC2
S3152000063080B400AF45F20003C4F200034FF001027C
S315200006401A61BFF34F8FBD4680BC704780B500AF9F
S3152000065042F69C60C2F200004FF4E1314FF00302F3
S3152000066000F08EFE00F062F980BD00BF80B582B03A
S3152000067000AF4FF07C033B714FF000037B7107F115
S31520000680040342F69C60C2F2000019464FF00202B3
S3152000069000F078FF00F0ECF807F10807BD4680BDB2
S315200006A080B582B000AF786042F69C60C2F200004E
S315200006B0796800F0D9FF00F005F807F10807BD4674
S315200006C080BD00BF80B500AF42F67463C2F200035E
S315200006D01B6803F1010242F67463C2F200031A603A
S315200006E042F67463C2F200031B68184600F0C8F88D
S315200006F080BD00BF80B584B000AFF871B9717A7142
S315200007003B71BB79C3F17F03DAB23B79C3F17F0337
S31520000710DBB24FF07C0139724FF00C017972F97916
S31520000720B972FA727A793A737B734FF00103BB730D
S3152000073007F1080342F69C60C2F2000019464FF00A
S31520000740070200F01FFF07F11007BD4680BD00BF5E
S3152000075080B584B000AFF871B9717A713B71BB79FD
S31520000760C3F17F03DAB23B79C3F17F03DBB24FF0EB
S315200007707C0139724FF00F017972F979B972FA72E8
S315200007807A793A737B734FF00103BB7307F1080341
S3152000079042F69C60C2F2000019464FF0070200F0B4
S315200007A0F1FE07F11007BD4680BD00BF80B584B0BD
S315200007B000AF13460246FA710A46BA717B71BB79BD
S315200007C0C3F17F03DBB24FF07C023A724FF0030293
S315200007D07A72FA79BA72FB727B793B734FF0010316
S315200007E07B7307F1080342F69C60C2F200001946AB
S315200007F04FF0060200F0C6FE07F11007BD4680BD89
S3152000080080B584B000AF0346FB714FF07C033B7389
S315200008104FF018037B73FB79BB7307F10C0342F689
S315200008209C60C2F2000019464FF0030200F0AAFEB7
S3152000083007F11007BD4680BD80B584B000AF0346E2
S31520000840FB714FF07C033B734FF019037B73FB79ED
S31520000850BB7307F10C0342F69C60C2F200001946F6
S315200008604FF0030200F08EFE07F11007BD4680BD53
S3152000087080B500AF4FF0000000F002F880BD00BF49
S3152000088080B582B000AF786042F67463C2F200038E
S315200008905B68DBB21846FFF7B3FF42F67463C2F219
S315200008A00003DA684FF6F873CFF6FF73C2EB030343
S315200008B0DBB27A68D2B202FB03F3DAB242F6746391
S315200008C0C2F200039B68DBB2C3EB0203DBB203F187
S315200008D07F03DBB21846FFF7AFFF42F67463C2F21E
S315200008E000037A681A6007F10807BD4680BD00BF7D
S315200008F080B584B000AFF860B9607A6042F6746360
S31520000900C2F20003BA689A6042F67463C2F2000328
S31520000910FA685A6042F67463C2F200037A68DA60B3
S31520000920FFF7A6FF07F11007BD4680BD80B500AFD3
S3152000093042F67463C2F200034FF001025A6042F697
S315200009407463C2F200034FF001029A6042F67463A8
S31520000950C2F200034FF00002DA60FFF789FF80BD84
S3152000096080B500AFFFF782FE4FF014004FF00D0167
S315200009704FF00002FFF7BCFF42F29870C2F200006F
S31520000980FFF78EFE4FF001004FF020014FF00202DC
S31520000990FFF7AEFF42F2B070C2F20000FFF780FE12
S315200009A042F2CC70C2F20000FFF77AFE42F2E47007
S315200009B0C2F20000FFF774FE42F2F070C2F20000AD
S315200009C0FFF76EFE42F60C00C2F20000FFF768FE4B
S315200009D042F62800C2F20000FFF762FE42F640000F
S315200009E0C2F20000FFF75CFE42F65800C2F2000099
S315200009F0FFF756FE42F67000C2F20000FFF750FEE7
S31520000A004FF009004FF00A014FF096024FF01603FF
S31520000A10FFF79EFE4FF005004FF005014FF09B02B9
S31520000A204FF01903FFF794FEFFF780FF4FF47A701B
S31520000A3000F05EFB80BD00BF80B500AFFFF716FE5D
S31520000A404FF04F004FF03F014FF03C02FFF7AEFE54
S31520000A504FF03C004FF01E014FF063024FF01E0393
S31520000A60FFF748FE4FF03C004FF062014FF0630263
S31520000A704FF06203FFF73EFE4FF063004FF01E017A
S31520000A804FF063024FF06203FFF734FE4FF03C0055
S31520000A904FF03F014FF063024FF03F03FFF72AFE6E
S31520000AA04FF47A7000F024FBFFF7E0FD4FF04F0083
S31520000AB04FF03F014FF03C02FFF778FE4FF03B002E
S31520000AC04FF01E014FF063024FF01E03FFF712FE98
S31520000AD04FF03B004FF062014FF063024FF062038C
S31520000AE0FFF708FE4FF03B004FF03F014FF0630247
S31520000AF04FF03F03FFF7FEFD4FF063004FF01E015E
S31520000B004FF063024FF03F03FFF7F4FD4FF03B0039
S31520000B104FF03F014FF03B024FF06203FFF7EAFD33
S31520000B204FF47A7000F0E4FAFFF7A0FD4FF04F0083
S31520000B304FF03F014FF03C02FFF738FE4FF03B00ED
S31520000B404FF062014FF063024FF06203FFF7D2FDD0
S31520000B504FF04F004FF062014FF04F024FF01E034F
S31520000B60FFF7C8FD4FF03B004FF026014FF04F0234
S31520000B704FF01E03FFF7BEFD4FF47A7000F0B8FA6F
S31520000B8080BD00BF80B500AF4FF00F004FF032019F
S31520000B904FF090024FF07803FFF7DAFD4FF02F0069
S31520000BA04FF037014FF00002FFF7A2FE42F6800019
S31520000BB0C2F20000FFF774FD4FF013004FF045011D
S31520000BC04FF00702FFF794FE42F68C00C2F20000B7
S31520000BD0FFF766FD42F69000C2F20000FFF760FDC7
S31520000BE04FF030004FF00F014FF06C024FF01E0314
S31520000BF0FFF7AEFD80BD00BF80B500AF4FF02300EC
S31520000C004FF045014FF00702FFF772FE42F6A000B3
S31520000C10C2F20000FFF744FD42F69400C2F2000043
S31520000C20FFF73EFD80BD00BF80B500AF42F684636E
S31520000C30C2F200034FF000021A60FFF717FD4FF0D3
S31520000C4030004FF00F014FF06C024FF01E03FFF7FC
S31520000C507FFD4FF03E004FF013014FF00002FFF7EB
S31520000C6047FE42F6AC00C2F20000FFF719FD4FF036
S31520000C700000FFF76DFC4EF20010C0F2F550FFF7B2
S31520000C80B7FCFFF7C5FCFFF7A5FC80BD90B585B086
S31520000C9000AF42F68463C2F200031B6803F101022F
S31520000CA042F68463C2F200031A604FF000033B60F1
S31520000CB007F104034FF000021A6003F104034FF01A
S31520000CC000021A6003F104034FF000021A8003F1B8
S31520000CD002034FF000021A7003F1010342F6846307
S31520000CE0C2F200031B6803F13B03762B10D83C4667
S31520000CF03B46184601F0ECFB03462344184642F6D1
S31520000D00B401C2F200014FF0020201F07FFA1AE0AC
S31520000D1042F68463C2F200031B6848F68902C8F6CD
S31520000D20880282FB03121A444FEA62124FEAE373E7
S31520000D30C3EB0203184600F01DFA03463A46104656
S31520000D40194601F043FB3B46184642F6B801C2F26B
S31520000D50000101F03BFB42F68463C2F200031968EE
S31520000D6048F68903C8F6880383FB01230B444FEA20
S31520000D7063124FEAE173C3EB020213464FEA0313F1
S31520000D80C2EB03034FEA8303C3EB0102002A08D117
S31520000D903B46184642F6BC01C2F2000101F016FBA2
S31520000DA06DE042F68463C2F20003196848F68903AF
S31520000DB0C8F6880383FB01230B444FEA63124FEAEC
S31520000DC0E173C3EB020213464FEA0313C2EB03039C
S31520000DD04FEA8303C3EB0102092A2CDC3B46184663
S31520000DE042F6B401C2F2000101F0F0FA42F6846341
S31520000DF0C2F20003196848F68903C8F6880383FB04
S31520000E0001230B444FEA63124FEAE173C3EB02025C
S31520000E1013464FEA0313C2EB03034FEA8303C3EBE4
S31520000E200102104600F0A6F903463A461046194636
S31520000E3001F0CCFA23E042F68463C2F2000319687B
S31520000E4048F68903C8F6880383FB01230B444FEA3F
S31520000E5063124FEAE173C3EB020213464FEA031310
S31520000E60C2EB03034FEA8303C3EB0102104600F0F3
S31520000E7081F903463A461046194601F0A7FA3B4641
S31520000E80184642F6C001C2F2000101F09FFA4FF067
S31520000E903E004FF013014FF00002FFF729FD3B46BD
S31520000EA01846FFF7FDFB07F11407BD4690BD00BFAE
S31520000EB0684620F007018D4689B500AFFFF7E6FEAC
S31520000EC0FFF7B6FBBD46BDE889408546704700BFA3
S31520000ED080B582B000AFFFF7B9FB00F0B5F9FFF798
S31520000EE03FFD42F69863C2F200031B68002BF8D040
S31520000EF0FFF7A2FD42F6C400C2F2000000F0B2F9EC
S31520000F00FFF792FE4FF000033B604FF001037B603A
S31520000F1042F69063C2F200034FF001021A6042F6D5
S31520000F208C63C2F200034FF001021A6004E000BF96
S31520000F3002E000BF00E000BF3B68002B12D142F662
S31520000F409063C2F200031B68012B06DC42F68C6319
S31520000F50C2F200031B68012B04DDFFF713FE4FF0DE
S31520000F6001033B603B68002BE1D042F69063C2F25E
S31520000F7000031B687A689A42DBD142F68C63C2F280
S31520000F8000031A6842F69063C2F200031B689A4275
S31520000F90D1DDFFF731FE7B6803F101037B60CBE7F0
S31520000FA080B483B000AF0346FB804EF20013CEF22E
S31520000FB00003B7F906204FEA5212F98801F01F0103
S31520000FC04FF0010000FA01F102F1200243F822104D
S31520000FD007F10C07BD4680BC704700BF80B483B0C4
S31520000FE000AF0346FB804EF20013CEF20003B7F9A2
S31520000FF006204FEA5212F98801F01F014FF0010036
S3152000100000FA01F102F1600243F8221007F10C0701
S31520001010BD4680BC704700BF80B582B000AF034696
S31520001020FB714FF01500FFF7BBFF42F20003CEF233
S31520001030040342F20002CEF20402126B22F04002B6
S315200010401A6345F20003C4F200034FF000025A650A
S3152000105040F20003C4F20A234FF00002C3F88024B2
S3152000106040F20003C4F20A234FF00002C3F888249A
S3152000107040F20003C4F20A23FA79C3F8842445F225
S315200010800003C4F200034FF001029A624FF01500EC
S31520001090FFF7A4FF07F10807BD4680BD80B400AF67
S315200010A040F20003C4F20A234FF00102C3F8802461
S315200010B0BD4680BC704700BF80B400AF45F2000338
S315200010C0C4F200039B691846BD4680BC704700BF2A
S315200010D080B483B000AF786045F20003C4F2000309
S315200010E07A68DA6107F10C07BD4680BC704700BFFD
S315200010F080B582B000AF78604FF00100FFF78CFF1B
S315200011007A6848F2A063C0F2010303FB02F3184693
S31520001110FFF7DEFFFFF7C2FFFFF7CEFF0346002BE8
S31520001120FAD107F10807BD4680BD00BF80B485B05F
S3152000113000AF78604FF00003FB6011E0FB6803F11D
S315200011400103FB607A6846F26763C6F2666383FB37
S3152000115002134FEAA3014FEAE273C3EB01037B605C
S315200011607B68002BEADCFB68184607F11407BD46AE
S3152000117080BC704780B584B000AF78604FF0000324
S31520001180FB607B68002B07DA7B68C3F100037B607A
S31520001190FB6803F10103FB607868FFF7C7FF03468E
S315200011A0FA681344FB60FB6803F10103184600F05C
S315200011B053FD0346BB60FA68BB6813444FF0000238
S315200011C01A7031E0FB6803F1FF32BB6802EB0300C3
S315200011D0796846F26763C6F2666383FB01234FEAAA
S315200011E0A3024FEAE173C3EB020213464FEA8303DD
S315200011F013444FEA4303C3EB0102D3B203F1300396
S31520001200DBB203707A6846F26763C6F2666383FBD5
S3152000121002134FEAA3014FEAE273C3EB01037B609B
S31520001220FB6803F1FF33FB607B68002BCADCFB689D
S31520001230012B03D1BB684FF02D021A70BB681846EC
S3152000124007F11007BD4680BD80B500AF42F6C460E9
S31520001250C2F200004FF416514FF0030200F090F84E
S3152000126080BD00BF80B582B000AF786042F6C46012
S31520001270C2F20000796800F0F7F907F10807BD46C9
S3152000128080BD00BF80B483B000AF7860FEE700BFAA
S3152000129080B485B000AFF860B9607A603B604FF0EB
S315200012A00003184607F11407BD4680BC704700BFEF
S315200012B080B584B000AF786042F63C63C2F200038A
S315200012C01B68002B08D142F63C63C2F2000342F6AB
S315200012D0F062C2F200021A6042F63C63C2F20003D8
S315200012E01B68BB60EFF30883FB6042F63C63C2F2E7
S315200012F000031A687B681A44FB689A420FD94FF09C
S3152000130000004FF0010142F6C802C2F200024FF07F
S315200013101903FFF7BDFF4FF00100FFF7B3FF42F6B9
S315200013203C63C2F200031A687B681A4442F63C63A7
S31520001330C2F200031A60BB68184607F11007BD46C3
S3152000134080BD00BF80B483B000AF0346FB804EF261
S315200013500013CEF20003B7F906204FEA5212F9889D
S3152000136001F01F014FF0010000FA01F102F16002C5
S3152000137043F8221007F10C07BD4680BC704700BF1A
S3152000138080B588B000AFF860B9601346FB714FF0A6
S315200013900103FB824FF00003BB61FA6842F6C46387
S315200013A0C2F200039A4207D0FA6842F69C63C2F260
S315200013B000039A4200D000BEBB68002B00D100BEBD
S315200013C000F0FEFAFA6842F6C463C2F200039A42BB
S315200013D02ED1FB684FF080421A60FB684FF08442A2
S315200013E05A60FB684FF00A021A8142F62413C2F2B1
S315200013F000031B68BB6142F20003CEF2040342F2F3
S315200014000002CEF20402126B42F080021A634FF001
S315200014100A00FFF797FF42F20003CEF2040342F2DE
S315200014200002CEF20402126B22F080021A6331E02F
S31520001430FA6840F20003C4F201031360FA6840F22E
S315200014400003C4F220235360FB684FF00B021A817D
S3152000145042F62813C2F200031B68BB6142F2000366
S31520001460CEF2040342F20002CEF20402126B42F4E0
S3152000147080721A634FF00B00FFF764FF42F20003FD
S31520001480CEF2040342F20002CEF20402126B22F4E0
S3152000149080721A63FB681B684FF000021A71BB68E2
S315200014A0002B21D0BA69BB68B2FBF3F3FB61FB6961
S315200014B003F00803002B06D0FB694FEA131303F150
S315200014C00103FB6103E0FB694FEA1313FB61FA6931
S315200014D04FF6FF739A4200D900BEFA694FF6FF73A2
S315200014E09A4201D8FB69FB82FB685B684FF00102D8
S315200014F0C3F89C21FB681B68FA8A4FEA122292B233
S31520001500D2B21A71FB681B68FA8AD2B21A70FB68CB
S315200015105B684FF00002C3F89C21FB681B68FA79D0
S315200015201A73FB681B684FF00E021A72FB685B6821
S315200015304FF00002C3F81022FB684FF000021A6138
S31520001540FB684FF00002DA60FB684FF000025A6138
S31520001550FB684FF00002DA61FA6841F65503C2F2E1
S3152000156000031362FB684FF000029A61FB684FF09C
S3152000157000025A62FB684FF000029A7207F12007B8
S31520001580BD4680BD80B489B000AFF860B9607A608E
S315200015904FF000033B61FA6842F6C463C2F20003CF
S315200015A09A4207D0FA6842F69C63C2F200039A4236
S315200015B000D000BEBB68002B00D100BE7B68002B8C
S315200015C000D100BEFA6842F6C463C2F200039A4212
S315200015D006D0FA6842F69C63C2F200039A423DD1D5
S315200015E0BB68002B3AD07B68002B37D0FB681B6882
S315200015F01B7DFB76FB689A7AFB7E42EA0303DAB20E
S31520001600FB689A72FB7E03F02003002B23D04FF059
S315200016101003FB617B680F2B01D87B68FB614FF0C1
S3152000162000037B610EE0FB681B68B9683A690A44CF
S3152000163012781A703B6903F101033B617B6903F160
S3152000164001037B617A69FB699A42ECD37A687B69EC
S31520001650C3EB02037B607B68002BC7D107F124070D
S31520001660BD4680BC704700BF80B487B000AF7860AD
S3152000167039604FF00003BB607A6842F6C463C2F259
S3152000168000039A4207D07A6842F69C63C2F20003AE
S315200016909A4200D000BE3B68002B00D100BE7A687B
S315200016A042F6C463C2F200039A4206D07A6842F632
S315200016B09C63C2F200039A4238D13B68002B35D096
S315200016C03A68BB6813441B783B612CE07B681B6837
S315200016D01B7DFB757B689A7AFB7D42EA0303DAB2AF
S315200016E07B689A72FB7D03F02003002BEED04FF02F
S315200016F00003FB6011E07B681B683A69D2B21A705E
S31520001700FB6803F10103FB60BB6803F10103BB60C7
S315200017103A68BB6813441B783B613B69002B02D0B7
S31520001720FB680F2BE7D93B69002BCFD107F11C07AC
S31520001730BD4680BC704700BF80B584B000AF7860DE
S315200017407A6842F6C463C2F200039A4207D07A68E6
S3152000175042F69C63C2F200039A4200D000BE7A6829
S3152000176042F6C463C2F200039A4206D07A6842F671
S315200017709C63C2F200039A4267D17B681B681B7A7E
S31520001780DBB203F00F03FB73FB7B0C2B54D801A2B7
S3152000179052F823F0C917002039180020E517002039
S315200017A03918002001180020391800201D180020A3
S315200017B0391800203918002039180020391800203F
S315200017C039180020011800207B685B6A002B00D1A5
S315200017D000BE7B685B6A002B30D07B685B6A7868CA
S315200017E0984732E07B681B6A002B00D100BE7B68DD
S315200017F01B6A002B24D07B681B6A7868984724E0F4
S315200018007B68DB69002B00D100BE7B68DB69002B7F
S3152000181018D07B68DB697868984716E07B689B69F7
S31520001820002B00D100BE7B689B69002B0CD07B6807
S315200018309B697868984708E000BE06E000BF04E090
S3152000184000BF02E000BF00E000BF07F11007BD4661
S3152000185080BD00BF80B487B000AF78607A6842F65A
S31520001860C463C2F200039A4207D07A6842F69C63A8
S31520001870C2F200039A4200D000BE7B68DB68002BD0
S3152000188000D100BE7B681B69002B00D100BE7A68A0
S3152000189042F6C463C2F200039A4206D07A6842F640
S315200018A09C63C2F200039A4252D17B68DB68002B0C
S315200018B04ED07B681B69002B4AD07B681B681B7D3A
S315200018C0FB727B689A7AFB7A42EA0303DAB27B6878
S315200018D09A72FB7A03F02003002B29D04FF01003D5
S315200018E03B617B681A697B685B69C3EB02037B619A
S315200018F07B690F2B01D87B693B614FF00003FB60AE
S3152000190012E07B681B687A68D1687A6852690A4453
S3152000191012781A707B685B6903F101027B685A6151
S31520001920FB6803F10103FB60FA683B699A42E8D33E
S315200019307B685A697B681B699A4209D17B684FF09C
S3152000194000021A617B685B684FF00002C3F88420AE
S3152000195007F11C07BD4680BC704700BF684620F0D3
S3152000196007018D4689B500AF42F6C460C2F2000079
S31520001970FFF7E2FE4FF00A00FFF7E4FCBD46BDE8A4
S3152000198089408546704700BF684620F007018D468E
S3152000199089B500AF42F69C60C2F20000FFF7CCFE8C
S315200019A04FF00B00FFF7CEFCBD46BDE889408546CB
S315200019B0704700BF80B400AFBD4680BC704700BFF3
S315200019C080B58AB000AF42F6E403C2F20003BC46FB
S315200019D00FCB8CE80F0042F20003CEF204039B6C7F
S315200019E04FEA930303F003034FEA830307F1280228
S315200019F0134453F8283C3B6142F20003CEF2040321
S31520001A009B6C4FEA131303F003034FEA830307F19A
S31520001A102802134453F8283C7B6142F20003CEF29D
S31520001A2004039B6C4FEA931303F003034FEA8303EB
S31520001A3007F12802134453F8283CBB6142F2000305
S31520001A40CEF20403DB6C4FEA132303F01F033B6241
S31520001A5042F20003CEF20403DB6C4FEA533303F069
S31520001A6001037B623B6A03F10103FB617B6A002B66
S31520001A7003D0FB694FEA4303FB6100F049F80246B5
S31520001A8042F62013C2F200031A6042F62013C2F275
S31520001A9000031A683B69B2FBF3F242F62413C2F242
S31520001AA000031A6042F62013C2F200031A687B690B
S31520001AB0B2FBF3F242F62813C2F200031A6042F692
S31520001AC02013C2F200031A68BB69B2FBF3F242F696
S31520001AD02C13C2F200031A6042F62013C2F200034E
S31520001AE01A68FB69B2FBF3F242F63013C2F2000326
S31520001AF01A6042F62013C2F200031A6842F61C133B
S31520001B00C2F200031A6007F12807BD4680BD00BF58
S31520001B1080B48BB000AF4FF000037B6040F61C030F
S31520001B20C6F20803BB6040F23023C6F20803FB600E
S31520001B30FB681B6823F070433B613A6941F2CF137F
S31520001B40C0F2A1539A4208D14EF62C73C6F2010375
S31520001B507B617B691B687B603DE0BB681A6844F249
S31520001B604133C4F654439A4235D140F64003C6F277
S31520001B700803BB61BB691B68FB61FB6923F07F43DC
S31520001B80FB61FA6940F20033C0F201039A4222D97E
S31520001B90FA694FF6FF73C0F201039A4208D841F260
S31520001BA02C63C6F208033B623B6A1B687B6012E02B
S31520001BB0FA694FF6FF73C0F202039A4208D841F63B
S31520001BC0AC63C6F208037B627B6A1B687B6002E01B
S31520001BD04FF000037B607B68002B05D100BE47F6E3
S31520001BE04003C0F27D137B607B68184607F12C0703
S31520001BF0BD4680BC704700BF70B542F6101642F64F
S31520001C001015C2F20006C2F20005761BB61006D0E9
S31520001C10002455F8243001349847A642F9D842F6D4
S31520001C20101542F61416C2F20005C2F20006761B03
S31520001C3000F062FEB61006D0002455F82430013498
S31520001C409847A642F9D870BD42F634130146C2F22F
S31520001C500003186800F0C0BC42F634130146C2F2F5
S31520001C600003186800F000B82DE9F04F01F10B04CD
S31520001C70162C83B006462FD8002310248C422CBF66
S31520001C80194643F00101002930D1304600F086FB89
S31520001C90B4F5FC7F2ED24FEAD40E42F62825C2F2A6
S31520001CA0000505EBCE02D368934200F006825A68FF
S31520001CB003F10805D968304622F0030C9A6863447C
S31520001CC05C688A6044F00104D1605C6000F068FBC7
S31520001CD0284603B0BDE8F08F24F00704E30F8C42BA
S31520001CE02CBF194643F001010029CED00C23002534
S31520001CF03360EDE75FEA542E04BF4FEAD40E4FEA75
S31520001D00CE0040F0908042F62825C2F20005281821
S31520001D10C368984206D10DE0002A80F26F81DB6805
S31520001D20984207D0596821F003010A1B0F2AF3DDD8
S31520001D300EF1FF3E0EF1010E42F62827C2F20007F1
S31520001D4007F108018B68994208BF7A6826D05A683D
S31520001D5022F0030CC4EB0C020F2A00F39481002A14
S31520001D60C960896080F29980BCF5007F80F065812A
S31520001D704FEADC0C4FF0010A7A6807EBCC004FEAF9
S31520001D80AC0C0AFA0CFCD860D0F808804CEA0202A7
S31520001D907A60C3F80880C8F80C3083604FF0010CD5
S31520001DA04FEAAE030CFA03FC944500F2828012EA55
S31520001DB00C0F08D12EF0030E4FEA4C0C0EF1040E38
S31520001DC012EA0C0FF8D007EBCE09F246C846D8F82F
S31520001DD00C30984507D168E1002A80F27881DB68CB
S31520001DE0984500F06281586820F00300021B0F2AF4
S31520001DF0F2DD1D461F19D3F80CC044F0010E55F82C
S31520001E00084F3046BA5042F00102C3F804E0CCF83D
S31520001E100840C4F80CC08F60CF607A60B960F96062
S31520001E2000F0BEFA54E7BEF1040F9EBF4FEA941E9F
S31520001E300EF1380E4FEACE007FF665AFBEF1140FD5
S31520001E409CBF0EF15B0E4FEACE007FF65CAFBEF173
S31520001E50540F9EBF4FEA143E0EF16E0E4FEACE008F
S31520001E607FF651AFBEF5AA7F9EBF4FEAD43E0EF154
S31520001E70770E4FEACE007FF646AF40F254539E458A
S31520001E8095BF4FEA944E4FF47C700EF17C0E4FF0C6
S31520001E907E0E98BF4FEACE0035E703EB0C0203F126
S31520001EA008053046536843F00103536000F078FA82
S31520001EB00EE7D7F80880D8F8043023F00309C4EBDE
S31520001EC009024C4594BF002301230F2AD8BF43F0B3
S31520001ED00103002B00F0A18042F6406BD5F80824C0
S31520001EE0C2F2000BDBF8003010331B19B2F1FF3FB2
S31520001EF006D003F57E631F3323F47E6323F01F038E
S31520001F0019463046019300F04DFA019BB0F1FF3F90
S31520001F10824600F0F48008EB0901814200F2EC8051
S31520001F20DBF804209A185145CBF8042000F04581AF
S31520001F30D5F8085442F62820C2F20000B5F1FF3F3A
S31520001F4008BFC0F808A403D05244511ACBF8041095
S31520001F501AF00705304617BFC5F108054FF480551E
S31520001F60AA4405F5805553441B051B0DED1A294639
S31520001F7000F018FAB0F1FF3F00F02C81CAEB000107
S31520001F80491941F00101DBF8042042F64063C7F805
S31520001F9008A0C2F20003AA18B845CBF80420CAF854
S31520001FA0041017D0B9F10F0F40F2DF80A9F10C0110
S31520001FB0052521F0070108EB01000F298560456002
S31520001FC0D8F8040000F0010041EA0000C8F8040037
S31520001FD000F2AC80D04642F64063DBF82C10C2F209
S31520001FE000038A42DBF8301088BFDA6242F640638B
S31520001FF0C2F200038A4288BF1A6382E05C189A689C
S31520002000D9683046666803F108058A6046F0010300
S31520002010D160636000F0C4F95AE608EB040342F08D
S31520002020010244F001043046C8F8044008F10805CE
S315200020305A60BB6000F0B4F94AE64FEA5C22042AF3
S3152000204054D9142A00F289805B324FEAC208A84488
S3152000205042F62827C2F20007D8F80800404503D1E7
S315200020606FE08068804504D0426822F003029445E0
S31520002070F7D3D0F80CC0C3F80CC098607A68C36058
S31520002080CCF808308AE61F19304644F00104CF60A8
S315200020905C6003F10805BA5042F001028F607A6055
S315200020A0B960F96000F07CF912E60AF1010A1AF02B
S315200020B0030F5FD003F1080889E603F10802D3680D
S315200020C09A4208BF0EF1020E3FF436AEEFE51D46EA
S315200020D01918DA68304655F8083F4C68936044F082
S315200020E00104DA604C6000F05BF9F1E54FEA9C12DE
S315200020F038324FEAC208AAE7B8453FF411AFD7F8FD
S315200021000880D8F8042022F00302944294BF0023CA
S315200021100123121B0F2AD8BF43F00103002B3FF4E3
S315200021207CAF3046002500F03BF9D1E508F10801E7
S315200021303046019300F050FA019BD7F808805A6880
S3152000214049E74FF0010AD7F80480921084460AFA2C
S3152000215002F248EA02027A608DE7542A24D84FEA2E
S315200021601C326E324FEAC20871E70123D046CAF804
S315200021700430C6E74A461EF0030F13460EF1FF3E13
S3152000218033D053F808299A42F5D07B684FEA4C0C95
S315200021909C453FF68EAEBCF1000F3FF48AAE1CEA9A
S315200021A0030F27D0D6460EE6B2F5AA7F15D84FEAFA
S315200021B0DC3277324FEAC20849E70805000D0028CD
S315200021C07FF4B6AED7F808804B4443F00103C8F835
S315200021D0043000E701210025D5E640F25450824222
S315200021E00DD94FF47C787E2231E77B6823EA0C03F5
S315200021F07B60CBE74FEA4C0C0AF1040ACFE74FEAA3
S315200022009C427C324FEAC20821E700BF032A2DE90F
S31520002210F0070BD83AB1002311F803C000F803C029
S3152000222001339342F8D1BDE8F007704782180C4677
S31520002230034603E014F8011C03F8011C03F003060F
S315200022401946A44601330134002EF3D11CF00304B1
S31520002250634608BFC1EB020C68D06542C4F1040A8C
S315200022600CEB050733464FEACA0A5CF805604FEACD
S31520002270C408551A08E057F8044F264604FA0AF40B
S3152000228049EA0404CC5004335C18032D26FA08F9D5
S31520002290A5F104050CEB0306EDDC002302E0F15C5E
S315200022A0E154013319199142F9D3BCE753F8404C54
S315200022B041F8404C53F83C4C41F83C4C53F8384CD0
S315200022C041F8384C53F8344C41F8344C53F8304CE0
S315200022D041F8304C53F82C4C41F82C4C53F8284CF0
S315200022E041F8284C53F8244C41F8244C53F8204C00
S315200022F041F8204C53F81C4C41F81C4C53F8184C10
S3152000230041F8184C53F8144C41F8144C53F8104C1F
S3152000231041F8104C53F80C4C41F80C4C53F8084C2F
S3152000232041F8084C53F8044C41F8044C1C460D4621
S3152000233040334031BCF13F0FACF1400CB6DC2146B6
S315200023402B46541B0FE051F8105C43F8105C51F8F3
S315200023500C5C43F80C5C51F8085C43F8085C51F8B7
S31520002360045C43F8045C0F2C0D469C4601F11001D9
S3152000237003F11003A4F11004E5DCCCEB02010023E9
S3152000238003E0EC584CF8034004335E19032903EBB1
S315200023900C04A1F10401F4DC7FE700BF704700BF05
S315200023A0704700BF38B542F6EC64C2F20004054619
S315200023B0084600232360FEF77BFFB0F1FF3F00D0E5
S315200023C038BD2368002BFBD02B6038BD10F0030FDF
S315200023D010B5044618BF004611D123682046A3F144
S315200023E0013222EA030313F0803F08D150F8043F5C
S315200023F0A3F1013222EA030313F0803FF6D00378DB
S315200024001BB110F8013F002BFBD100F003F820464A
S3152000241010BD00BF80EA0102844612F0030F4FD19F
S3152000242011F0030F32D14DF8044D11F0040F51F87D
S31520002430043B0BD0A3F101329A4312F0803F04BF34
S315200024404CF8043B51F8043B16D100BF51F8044B1D
S31520002450A3F101329A4312F0803FA4F101320BD14D
S315200024604CF8043BA24312F0803F04BF51F8043BD2
S315200024704CF8044BEAD023460CF8013B13F0FF0F2F
S315200024804FEA3323F8D15DF8044B704711F0010F62
S3152000249006D011F8012B0CF8012B002A08BF704733
S315200024A011F0020FBFD031F8022B12F0FF0F16BF2A
S315200024B02CF8022B8CF8002012F47F4FB3D17047F2
S315200024C011F8012B0CF8012B002AF9D1704700BF17
S315200024D020F0030110F00300C0F1000051F8043B86
S315200024E000F1040C4FEACC0C6FF000021CBF22FA5C
S315200024F00CF213434FF0010C4CEA0C2C4CEA0C4C1A
S31520002500A3EB0C0222EA030212EACC1204BF51F812
S31520002510043B0430F4D013F0FF0F1FBF013013F437
S315200025207F4F013013F47F0F18BF0130704700BF73
S31520002530F8B542F62824C2F200040F460546FFF7F6
S315200025402DFFA3685E6826F0030606F57E630F332B
S31520002550DF1B3F0B013F3F03B7F5805F07DB002101
S315200025602846FFF71FFFA368F318834204D02846A6
S31520002570FFF716FF0020F8BD79422846FFF712FF25
S31520002580B0F1FF3F10D0A26842F64463C2F20003C6
S31520002590F61B46F00106284656601A68D71B1F60B0
S315200025A0FFF7FEFE0120F8BD00212846FFF7FAFEC0
S315200025B0A368C21A0F2ADADD42F6306442F6446175
S315200025C0C2F20004C2F2000142F001022468001B9C
S315200025D008605A60CBE700BF2DE9F04105460C465E
S315200025E0002900F08880FFF7D9FEA4F1080242F600
S315200025F028205668C2F2000026F00103D0F808C051
S31520002600D1188C454F6827F0030700F0958016F007
S3152000261001064F605FD00026CC19646814F0010FC4
S3152000262006D1DB19002E7AD08C68C9688C60E160EF
S3152000263043F00101D3505160002E47D1B3F5007FFE
S315200026405BD3590A04299EBF4FEA931C0CF1380C20
S315200026504FEACC0428D914299CBF01F15B0C4FEA20
S31520002660CC0421D954299EBF4FEA133C0CF16E0CA1
S315200026704FEACC0418D9B1F5AA7F9EBF4FEAD33CC6
S315200026800CF1770C4FEACC040ED940F2545C61452C
S3152000269095BF4FEA934C4FF47C740CF17C0C4FF0B1
S315200026A07E0C98BF4FEACC040419A168A14203D13D
S315200026B064E089688C4204D0486820F00300834295
S315200026C0F7D3CB68D3609160CA609A602846BDE88C
S315200026D0F041FFF765BE54F8084C00F1080C121BB8
S315200026E01B199468644547D0D2F80CC0CCF8084032
S315200026F0C4F80CC090E7BDE8F081DB084FF0010C70
S31520002700466800EBC3019B100CFA03F3D1608C687A
S3152000271046EA030343609460E2608A60D6E78C68E9
S315200027201C4FBC4281D1D35043F00103E260A2602A
S3152000273053609460D460C9E7FB1816F0010F07D1E7
S3152000274054F8081C521A5B18D4689168A160CC60B2
S3152000275042F634618260C2F2000143F0010050600B
S315200027600A689342B2D342F640632846C2F2000377
S315200027701968FFF7DDFEA9E701264DE70126446823
S315200027804FEAAC0C0B4606FA0CFC44EA0C044460F7
S3152000279098E700BF302A002057656C636F6D65206F
S315200027A0746F20436172696F4D617274000000007E
S315200027B0436172696F4D6172742069732074686514
S315200027C02067726561746573740000004545435344
S315200027D0203337332070726F6A65637420617420EA
S315200027E0746865006578706F7369746F6E2E00006B
S315200027F0546F20706C61792C206772616220612091
S31520002800636F6E74726F6C6C65720000616E64200B
S315200028107573652074696C7420636F6E74726F6C47
S315200028207320746F00000000737465657220616EFA
S31520002830642074686520627574746F6E20746F00EE
S31520002840616363656C65726174652E20546F2062C6
S315200028506567696E2C00000070726573732074685A
S315200028606520627574746F6E206F6E2074686500C3
S3152000287063656E74657220636F6E736F6C652E0070
S315200028804C6561646572626F61726400312E00006E
S31520002890322E0000506C61796572203100000000F4
S315200028A0506C61796572203200000000303A303079
S315200028B03A300000300000003A00000030300000BE
S315200028C03A300000302C31004865617020616E641A
S315200028D020737461636B20636F6C6C6973696F6EB0
S315200028E00A000000010000000200000004000000B1
S315200028F00100000043000000F8B500BFF8BC08BC8A
S315200029009E467047F8B500BFF8BC08BC9E46704787
S30D2000291085040020710400205B
S315200029180000000040787D0140787D01105E5F0050
S31520002928105E5F00105E5F00105E5F003829002091
S315200029380000000000000000000000000000000069
S315200029480000000000000000000000000000000059
S31520002958F42800200000000000000000000000000D
S315200029680000000000000000000000000000000039
S315200029780000000000000000000000000000000029
S315200029880000000000000000000000000000000019
S315200029980000000000000000000000000000000009
S315200029A800000000000000000000000000000000F9
S315200029B800000000000000000000000000000000E9
S315200029C800000000000000000000000000000000D9
S315200029D800000000000000000000000000000000C9
S315200029E800000000000000000000000000000000B9
S315200029F800000000000000000000000000000000A9
S31520002A080000000000000000000000000000000098
S31520002A180000000000000000000000000000000088
S31520002A280000000000000000282A0020282A002094
S31520002A38302A0020302A0020382A0020382A002070
S31520002A48402A0020402A0020482A0020482A002020
S31520002A58502A0020502A0020582A0020582A0020D0
S31520002A68602A0020602A0020682A0020682A002080
S31520002A78702A0020702A0020782A0020782A002030
S31520002A88802A0020802A0020882A0020882A0020E0
S31520002A98902A0020902A0020982A0020982A002090
S31520002AA8A02A0020A02A0020A82A0020A82A002040
S31520002AB8B02A0020B02A0020B82A0020B82A0020F0
S31520002AC8C02A0020C02A0020C82A0020C82A0020A0
S31520002AD8D02A0020D02A0020D82A0020D82A002050
S31520002AE8E02A0020E02A0020E82A0020E82A002000
S31520002AF8F02A0020F02A0020F82A0020F82A0020B0
S31520002B08002B0020002B0020082B0020082B00205B
S31520002B18102B0020102B0020182B0020182B00200B
S31520002B28202B0020202B0020282B0020282B0020BB
S31520002B38302B0020302B0020382B0020382B00206B
S31520002B48402B0020402B0020482B0020482B00201B
S31520002B58502B0020502B0020582B0020582B0020CB
S31520002B68602B0020602B0020682B0020682B00207B
S31520002B78702B0020702B0020782B0020782B00202B
S31520002B88802B0020802B0020882B0020882B0020DB
S31520002B98902B0020902B0020982B0020982B00208B
S31520002BA8A02B0020A02B0020A82B0020A82B00203B
S31520002BB8B02B0020B02B0020B82B0020B82B0020EB
S31520002BC8C02B0020C02B0020C82B0020C82B00209B
S31520002BD8D02B0020D02B0020D82B0020D82B00204B
S31520002BE8E02B0020E02B0020E82B0020E82B0020FB
S31520002BF8F02B0020F02B0020F82B0020F82B0020AB
S31520002C08002C0020002C0020082C0020082C002056
S31520002C18102C0020102C0020182C0020182C002006
S31520002C28202C0020202C0020282C0020282C0020B6
S31520002C38302C0020302C0020382C0020382C002066
S31520002C48402C0020402C0020482C0020482C002016
S31520002C58502C0020502C0020582C0020582C0020C6
S31520002C68602C0020602C0020682C0020682C002076
S31520002C78702C0020702C0020782C0020782C002026
S31520002C88802C0020802C0020882C0020882C0020D6
S31520002C98902C0020902C0020982C0020982C002086
S31520002CA8A02C0020A02C0020A82C0020A82C002036
S31520002CB8B02C0020B02C0020B82C0020B82C0020E6
S31520002CC8C02C0020C02C0020C82C0020C82C002096
S31520002CD8D02C0020D02C0020D82C0020D82C002046
S31520002CE8E02C0020E02C0020E82C0020E82C0020F6
S31520002CF8F02C0020F02C0020F82C0020F82C0020A6
S31520002D08002D0020002D0020082D0020082D002051
S31520002D18102D0020102D0020182D0020182D002001
S31520002D28202D0020202D0020282D0020282D0020B1
S31520002D38302D0020302D0020382D0020382D002061
S31520002D48402D0020402D0020482D0020482D002011
S31520002D58502D0020502D0020582D0020582D0020C1
S31520002D68602D0020602D0020682D0020682D002071
S31520002D78702D0020702D0020782D0020782D002021
S31520002D88802D0020802D0020882D0020882D0020D1
S31520002D98902D0020902D0020982D0020982D002081
S31520002DA8A02D0020A02D0020A82D0020A82D002031
S31520002DB8B02D0020B02D0020B82D0020B82D0020E1
S31520002DC8C02D0020C02D0020C82D0020C82D002091
S31520002DD8D02D0020D02D0020D82D0020D82D002041
S31520002DE8E02D0020E02D0020E82D0020E82D0020F1
S31520002DF8F02D0020F02D0020F82D0020F82D0020A1
S31520002E08002E0020002E0020082E0020082E00204C
S31520002E18102E0020102E0020182E0020182E0020FC
S31520002E28202E0020202E0020FFFFFFFF000002009A
S705200002993F
