S0230000636172696F6D6172745F6D73735F4D53535F434D335F305F6170702E73726563EA
S315200000000000012099020020090300200B03002094
S315200000100D0300200F030020110300200000000024
S315200000200000000000000000000000001303002074
S3152000003015030020000000001703002019030020EC
S315200000401B0300201D0300201F0300202103002086
S315200000502303002025030020270300202903002056
S315200000602B0300202D030020D10C0020FD0C0020A6
S3152000007033030020350300203703002039030020F6
S315200000803B0300203D0300203F03002041030020C6
S315200000904303002045030020470300204903002096
S315200000A04B030020000000000000000000000000BC
S315200000B00000000000000000000000004D030020AA
S315200000C04F03002051030020530300205503002036
S315200000D057030020590300205B0300205D03002006
S315200000E05F030020610300206303002065030020D6
S315200000F067030020690300206B0300206D030020A6
S315200001006F03002071030020730300207503002075
S3152000011077030020790300207B0300207D03002045
S315200001207F03002081030020830300208503002015
S3152000013087030020890300208B0300208D030020E5
S315200001408F030020910300209303002095030020B5
S3152000015097030020990300209B0300209D03002085
S315200001609F030020A1030020A3030020A503002055
S31520000170A7030020A9030020AB030020AD03002025
S31520000180AF030020B1030020B3030020B5030020F5
S31520000190B7030020B9030020BB030020BD030020C5
S315200001A0BF030020C1030020C3030020C503002095
S315200001B0C7030020C9030020CB030020CD03002065
S315200001C0CF030020D1030020D3030020D503002035
S315200001D0D7030020D9030020DB030020DD03002005
S315200001E0DF030020E1030020E3030020E5030020D5
S315200001F0E7030020E9030020EB030020ED030020A5
S31520000200EF030020F1030020F3030020F503002074
S31520000210F7030020F9030020FB030020FD03002044
S31520000220FF03002001040020030400200504002011
S3152000023007040020090400200B0400200D040020E0
S315200002400F040020110400201304002015040020B0
S3152000025017040020190400201B0400201D04002080
S315200002601F04002021040020230400202504002050
S3152000027027040020290400202B0400202D04002020
S315200002802F040020310400203304002035040020F0
S315200002903704002039040020684880476848002831
S315200002A00BD168486849694A884206D091421CBFEA
S315200002B050F8043B41F8043BF8D165486549664A45
S315200002C0884206D091421CBF50F8043B41F8043BBB
S315200002D0F8D162486249634A914218BF41F8040B3B
S315200002E0FAD100000000000000000000000000001D
S315200002F0DFF874010FF2030E00474FF000004FF0B5
S315200003000001DFF868F1FEE7FEE7FEE7FEE7FEE71D
S31520000310FEE7FEE7FEE7FEE7FEE7FEE7FEE7FEE78F
S31520000320FEE7FEE7FEE7FEE7FEE7FEE7FEE7FEE77F
S31520000330FEE7FEE7FEE7FEE7FEE7FEE7FEE7FEE76F
S31520000340FEE7FEE7FEE7FEE7FEE7FEE7FEE7FEE75F
S31520000350FEE7FEE7FEE7FEE7FEE7FEE7FEE7FEE74F
S31520000360FEE7FEE7FEE7FEE7FEE7FEE7FEE7FEE73F
S31520000370FEE7FEE7FEE7FEE7FEE7FEE7FEE7FEE72F
S31520000380FEE7FEE7FEE7FEE7FEE7FEE7FEE7FEE71F
S31520000390FEE7FEE7FEE7FEE7FEE7FEE7FEE7FEE70F
S315200003A0FEE7FEE7FEE7FEE7FEE7FEE7FEE7FEE7FF
S315200003B0FEE7FEE7FEE7FEE7FEE7FEE7FEE7FEE7EF
S315200003C0FEE7FEE7FEE7FEE7FEE7FEE7FEE7FEE7DF
S315200003D0FEE7FEE7FEE7FEE7FEE7FEE7FEE7FEE7CF
S315200003E0FEE7FEE7FEE7FEE7FEE7FEE7FEE7FEE7BF
S315200003F0FEE7FEE7FEE7FEE7FEE7FEE7FEE7FEE7AF
S31520000400FEE7FEE7FEE7FEE7FEE7FEE7FEE7FEE79E
S31520000410FEE7FEE7FEE7FEE7FEE7FEE7FEE7FEE78E
S31520000420FEE7FEE7FEE7FEE7FEE7FEE7FEE7FEE77E
S31520000430FEE7FEE7FEE7FEE7FEE70000290D0020C7
S31520000440000000000000002000000020EC0F00202B
S31520000450EC0F0020EC0F0020081000200000000008
S3152000046008100020701000206D0F00207907002052
S3152000047041F20803C2F200031A780AB90120187063
S31520000480704700BF40F6EC70C2F2000008B5036862
S315200004902BB140F20003C0F2000303B1984708BD18
S315200004A080B500AF41F22000C2F200004FF4E131E6
S315200004B04FF0030200F086F900F0C2F880BD00BFBD
S315200004C080B582B000AF4FF07C033B714FF0000344
S315200004D07B7107F1040341F22000C2F200001946A5
S315200004E04FF0020200F070FA00F06AF807F10807F0
S315200004F0BD4680BD80B584B000AFF871B9717A7100
S315200005003B71BB79C3F17F03DAB23B79C3F17F0339
S31520000510DBB24FF07C0139724FF00C017972F97918
S31520000520B972FA727A793A737B734FF00103BB730F
S3152000053007F1080341F22000C2F2000019464FF0ED
S31520000540070200F041FA07F11007BD4680BD00BF43
S3152000055080B584B000AF0346FB714FF07C033B733C
S315200005604FF018037B73FB79BB7307F10C0341F241
S315200005702000C2F2000019464FF0030200F024FAD0
S3152000058007F11007BD4680BD80B584B000AF034695
S31520000590FB714FF07C033B734FF019037B73FB79A0
S315200005A0BB7307F10C0341F22000C2F2000019468A
S315200005B04FF0030200F008FA07F11007BD4680BD90
S315200005C080B500AF4FF0000000F002F880BD00BFFC
S315200005D080B582B000AF786041F20C03C2F200030E
S315200005E05B68DBB21846FFF7B3FF41F20C03C2F299
S315200005F00003DA684FF6F873CFF6FF73C2EB0303F6
S31520000600DBB27A68D2B202FB03F3DAB241F20C0310
S31520000610C2F200039B68DBB2C3EB0203DBB203F139
S315200006207F03DBB21846FFF7AFFF41F20C03C2F29D
S3152000063000037A681A6007F10807BD4680BD00BF2F
S3152000064080B500AF41F20C03C2F200034FF0010265
S315200006505A6041F20C03C2F200034FF001029A6085
S3152000066041F20C03C2F200034FF00002DA60FFF7FA
S31520000670A7FF80BD80B500AFFFF722FF4FF03C00FB
S315200006804FF01E014FF063024FF01E03FFF732FFBB
S315200006904FF03C004FF062014FF063024FF06203CF
S315200006A0FFF728FF4FF063004FF01E014FF0630263
S315200006B04FF06203FFF71EFF4FF03C004FF03F0163
S315200006C04FF063024FF03F03FFF714FFFFF7F8FEEA
S315200006D04FF03B004FF01E014FF063024FF01E0318
S315200006E0FFF708FF4FF03B004FF062014FF0630227
S315200006F04FF06203FFF7FEFE4FF03B004FF03F0145
S315200007004FF063024FF03F03FFF7F4FE4FF0630014
S315200007104FF01E014FF063024FF03F03FFF7EAFE52
S315200007204FF03B004FF03F014FF03B024FF062038A
S31520000730FFF7E0FEFFF7C4FE4FF03B004FF06201EB
S315200007404FF063024FF06203FFF7D4FE4FF04F00E5
S315200007504FF062014FF04F024FF01E03FFF7CAFE23
S315200007604FF03B004FF026014FF04F024FF01E0393
S31520000770FFF7C0FE80BD00BF80B500AFFFF790FE3B
S31520000780FFF778FFFEE700BF80B483B000AF0346D3
S31520000790FB804EF20013CEF20003B7F906204FEA93
S315200007A05212F98801F01F014FF0010000FA01F101
S315200007B002F1600243F8221007F10C07BD4680BC07
S315200007C0704700BF80B588B000AFF860B9601346A7
S315200007D0FB714FF00103FB824FF00003BB61FA6807
S315200007E041F24803C2F200039A4207D0FA6841F266
S315200007F02003C2F200039A4200D000BEBB68002B41
S3152000080000D100BE00F096FAFA6841F24803C2F21F
S3152000081000039A422ED1FB684FF080421A60FB6893
S315200008204FF084425A60FB684FF00A021A8140F664
S31520000830F873C2F200031B68BB6142F20003CEF2DA
S31520000840040342F20002CEF20402126B42F080024E
S315200008501A634FF00A00FFF797FF42F20003CEF229
S31520000860040342F20002CEF20402126B22F080024E
S315200008701A6331E0FA6840F20003C4F20103136000
S31520000880FA6840F20003C4F220235360FB684FF05D
S315200008900B021A8140F6FC73C2F200031B68BB618F
S315200008A042F20003CEF2040342F20002CEF2040228
S315200008B0126B42F480721A634FF00B00FFF764FF4D
S315200008C042F20003CEF2040342F20002CEF2040208
S315200008D0126B22F480721A63FB681B684FF00002C9
S315200008E01A71BB68002B21D0BA69BB68B2FBF3F33F
S315200008F0FB61FB6903F00803002B06D0FB694FEA76
S31520000900131303F10103FB6103E0FB694FEA1313A1
S31520000910FB61FA694FF6FF739A4200D900BEFA6965
S315200009204FF6FF739A4201D8FB69FB82FB685B682E
S315200009304FF00102C3F89C21FB681B68FA8A4FEA34
S31520000940122292B2D2B21A71FB681B68FA8AD2B20C
S315200009501A70FB685B684FF00002C3F89C21FB68A5
S315200009601B68FA791A73FB681B684FF00E021A721D
S31520000970FB685B684FF00002C3F81022FB684FF05B
S3152000098000021A61FB684FF00002DA60FB684FF044
S3152000099000025A61FB684FF00002DA61FA6840F6FD
S315200009A0C933C2F200031362FB684FF000029A615A
S315200009B0FB684FF000025A62FB684FF000029A7201
S315200009C007F12007BD4680BD80B489B000AFF8602E
S315200009D0B9607A604FF000033B61FA6841F2480340
S315200009E0C2F200039A4207D0FA6841F22003C2F20B
S315200009F000039A4200D000BEBB68002B00D100BE87
S31520000A007B68002B00D100BEFA6841F24803C2F28F
S31520000A1000039A4206D0FA6841F22003C2F200038C
S31520000A209A423DD1BB68002B3AD07B68002B37D049
S31520000A30FB681B681B7DFB76FB689A7AFB7E42EA85
S31520000A400303DAB2FB689A72FB7E03F02003002BC5
S31520000A5023D04FF01003FB617B680F2B01D87B68F6
S31520000A60FB614FF000037B610EE0FB681B68B968F1
S31520000A703A690A4412781A703B6903F101033B6113
S31520000A807B6903F101037B617A69FB699A42ECD3A6
S31520000A907A687B69C3EB02037B607B68002BC7D136
S31520000AA007F12407BD4680BC704700BF80B584B0DF
S31520000AB000AF78607A6841F24803C2F200039A4296
S31520000AC007D07A6841F22003C2F200039A4200D08E
S31520000AD000BE7A6841F24803C2F200039A4206D069
S31520000AE07A6841F22003C2F200039A4267D17B68FA
S31520000AF01B681B7ADBB203F00F03FB73FB7B0C2B0B
S31520000B0054D801A252F823F03D0B0020AD0B002053
S31520000B10590B0020AD0B0020750B0020AD0B0020DB
S31520000B20910B0020AD0B0020AD0B0020AD0B00205B
S31520000B30AD0B0020AD0B0020750B00207B685B6A97
S31520000B40002B00D100BE7B685B6A002B30D07B680F
S31520000B505B6A7868984732E07B681B6A002B00D175
S31520000B6000BE7B681B6A002B24D07B681B6A7868D2
S31520000B70984724E07B68DB69002B00D100BE7B68A8
S31520000B80DB69002B18D07B68DB697868984716E00C
S31520000B907B689B69002B00D100BE7B689B69002B7C
S31520000BA00CD07B689B697868984708E000BE06E011
S31520000BB000BF04E000BF02E000BF00E000BF07F175
S31520000BC01007BD4680BD00BF80B487B000AF7860F7
S31520000BD07A6841F24803C2F200039A4207D07A6843
S31520000BE041F22003C2F200039A4200D000BE7B6885
S31520000BF0DB68002B00D100BE7B681B69002B00D16F
S31520000C0000BE7A6841F24803C2F200039A4206D037
S31520000C107A6841F22003C2F200039A4252D17B68DD
S31520000C20DB68002B4ED07B681B69002B4AD07B6883
S31520000C301B681B7DFB727B689A7AFB7A42EA030368
S31520000C40DAB27B689A72FB7A03F02003002B29D054
S31520000C504FF010033B617B681A697B685B69C3EBC5
S31520000C6002037B617B690F2B01D87B693B614FF0C7
S31520000C700003FB6012E07B681B687A68D1687A689B
S31520000C8052690A4412781A707B685B6903F1010283
S31520000C907B685A61FB6803F10103FB60FA683B69D4
S31520000CA09A42E8D37B685A697B681B699A4209D1C4
S31520000CB07B684FF000021A617B685B684FF0000288
S31520000CC0C3F8842007F11C07BD4680BC704700BFCF
S31520000CD0684620F007018D4689B500AF41F24800ED
S31520000CE0C2F20000FFF7E2FE4FF00A00FFF74CFDCC
S31520000CF0BD46BDE889408546704700BF684620F05E
S31520000D0007018D4689B500AF41F22000C2F20000EE
S31520000D10FFF7CCFE4FF00B00FFF736FDBD46BDE8D2
S31520000D2089408546704700BF80B400AFBD4680BC71
S31520000D30704700BF80B58AB000AF40F6BC73C2F2E0
S31520000D400003BC460FCB8CE80F0042F20003CEF224
S31520000D5004039B6C4FEA930303F003034FEA8303D8
S31520000D6007F12802134453F8283C3B6142F2000362
S31520000D70CEF204039B6C4FEA131303F003034FEAEE
S31520000D80830307F12802134453F8283C7B6142F27F
S31520000D900003CEF204039B6C4FEA931303F0030384
S31520000DA04FEA830307F12802134453F8283CBB611A
S31520000DB042F20003CEF20403DB6C4FEA132303F066
S31520000DC01F033B6242F20003CEF20403DB6C4FEAC0
S31520000DD0533303F001037B623B6A03F10103FB619A
S31520000DE07B6A002B03D0FB694FEA4303FB6100F0CB
S31520000DF049F8024640F6F473C2F200031A6040F640
S31520000E00F473C2F200031A683B69B2FBF3F240F6B0
S31520000E10F873C2F200031A6040F6F473C2F20003BC
S31520000E201A687B69B2FBF3F240F6FC73C2F2000348
S31520000E301A6040F6F473C2F200031A68BB69B2FB6B
S31520000E40F3F241F20003C2F200031A6040F6F47393
S31520000E50C2F200031A68FB69B2FBF3F241F2040303
S31520000E60C2F200031A6040F6F473C2F200031A6855
S31520000E7040F6F073C2F200031A6007F12807BD4658
S31520000E8080BD00BF80B48BB000AF4FF000037B6005
S31520000E9040F61C03C6F20803BB6040F23023C6F2BC
S31520000EA00803FB60FB681B6823F070433B613A69CB
S31520000EB041F2CF13C0F2A1539A4208D14EF62C73B9
S31520000EC0C6F201037B617B691B687B603DE0BB68E2
S31520000ED01A6844F24133C4F654439A4235D140F657
S31520000EE04003C6F20803BB61BB691B68FB61FB6953
S31520000EF023F07F43FB61FA6940F20033C0F201031D
S31520000F009A4222D9FA694FF6FF73C0F201039A4238
S31520000F1008D841F22C63C6F208033B623B6A1B6881
S31520000F207B6012E0FA694FF6FF73C0F202039A4221
S31520000F3008D841F6AC63C6F208037B627B6A1B685D
S31520000F407B6002E04FF000037B607B68002B05D1BD
S31520000F5000BE47F64003C0F27D137B607B681846CF
S31520000F6007F12C07BD4680BC704700BF70B540F620
S31520000F70E47640F6E475C2F20006C2F20005761B5E
S31520000F80B61006D0002455F8243001349847A642DE
S31520000F90F9D840F6E47540F6E876C2F20005C2F2CA
S31520000FA00006761B00F012F8B61006D0002455F87D
S31520000FB0243001349847A642F9D870BD01000000BC
S31520000FC0020000000400000001000000F8B500BF88
S31520000FD0F8BC08BC9E467047F8B500BFF8BC08BCF4
S31120000FE09E467047850400207104002006
S31520000FEC0000000040787D0140787D01105E5F0096
S31120000FFC105E5F00105E5F00105E5F005C
S705200002993F
