S0230000636172696F6D6172745F6D73735F4D53535F434D335F305F6170702E73726563EA
S315200000000000012099020020090300200B03002094
S315200000100D0300200F030020110300200000000024
S315200000200000000000000000000000001303002074
S3152000003015030020000000001703002019030020EC
S315200000401B0300201D0300201F0300202103002086
S315200000502303002025030020270300202903002056
S315200000602B0300202D0300204912002075120020AA
S3152000007033030020350300203703002039030020F6
S315200000803B0300203D0300203F03002041030020C6
S315200000905D08002045030020470300204903002077
S315200000A04B030020000000000000000000000000BC
S315200000B00000000000000000000000000D090020E4
S315200000C04F03002051030020530300205503002036
S315200000D057030020590300205B0300205D03002006
S315200000E05F030020610300206303002065030020D6
S315200000F067030020690300206B0300206D030020A6
S315200001006F03002071030020730300207503002075
S3152000011077030020790300207B0300207D03002045
S315200001207F03002081030020830300208503002015
S3152000013087030020890300208B0300208D030020E5
S315200001408F030020910300209303002095030020B5
S3152000015097030020990300209B0300209D03002085
S315200001609F030020A1030020A3030020A503002055
S31520000170A7030020A9030020AB030020AD03002025
S31520000180AF030020B1030020B3030020B5030020F5
S31520000190B7030020B9030020BB030020BD030020C5
S315200001A0BF030020C1030020C3030020C503002095
S315200001B0C7030020C9030020CB030020CD03002065
S315200001C0CF030020D1030020D3030020D503002035
S315200001D0D7030020D9030020DB030020DD03002005
S315200001E0DF030020E1030020E3030020E5030020D5
S315200001F0E7030020E9030020EB030020ED030020A5
S31520000200EF030020F1030020F3030020F503002074
S31520000210F7030020F9030020FB030020FD03002044
S31520000220FF03002001040020030400200504002011
S3152000023007040020090400200B0400200D040020E0
S315200002400F040020110400201304002015040020B0
S3152000025017040020190400201B0400201D04002080
S315200002601F04002021040020230400202504002050
S3152000027027040020290400202B0400202D04002020
S315200002802F040020310400203304002035040020F0
S315200002903704002039040020684880476848002831
S315200002A00BD168486849694A884206D091421CBFEA
S315200002B050F8043B41F8043BF8D165486549664A45
S315200002C0884206D091421CBF50F8043B41F8043BBB
S315200002D0F8D162486249634A914218BF41F8040B3B
S315200002E0FAD100000000000000000000000000001D
S315200002F0DFF874010FF2030E00474FF000004FF0B5
S315200003000001DFF868F1FEE7FEE7FEE7FEE7FEE71D
S31520000310FEE7FEE7FEE7FEE7FEE7FEE7FEE7FEE78F
S31520000320FEE7FEE7FEE7FEE7FEE7FEE7FEE7FEE77F
S31520000330FEE7FEE7FEE7FEE7FEE7FEE7FEE7FEE76F
S31520000340FEE7FEE7FEE7FEE7FEE7FEE7FEE7FEE75F
S31520000350FEE7FEE7FEE7FEE7FEE7FEE7FEE7FEE74F
S31520000360FEE7FEE7FEE7FEE7FEE7FEE7FEE7FEE73F
S31520000370FEE7FEE7FEE7FEE7FEE7FEE7FEE7FEE72F
S31520000380FEE7FEE7FEE7FEE7FEE7FEE7FEE7FEE71F
S31520000390FEE7FEE7FEE7FEE7FEE7FEE7FEE7FEE70F
S315200003A0FEE7FEE7FEE7FEE7FEE7FEE7FEE7FEE7FF
S315200003B0FEE7FEE7FEE7FEE7FEE7FEE7FEE7FEE7EF
S315200003C0FEE7FEE7FEE7FEE7FEE7FEE7FEE7FEE7DF
S315200003D0FEE7FEE7FEE7FEE7FEE7FEE7FEE7FEE7CF
S315200003E0FEE7FEE7FEE7FEE7FEE7FEE7FEE7FEE7BF
S315200003F0FEE7FEE7FEE7FEE7FEE7FEE7FEE7FEE7AF
S31520000400FEE7FEE7FEE7FEE7FEE7FEE7FEE7FEE79E
S31520000410FEE7FEE7FEE7FEE7FEE7FEE7FEE7FEE78E
S31520000420FEE7FEE7FEE7FEE7FEE7FEE7FEE7FEE77E
S31520000430FEE7FEE7FEE7FEE7FEE70000A11200204A
S31520000440000000000000002000000020F4330020FF
S31520000450F4330020F433002014390020000000007B
S3152000046014390020D0390020E51400204509002049
S3152000047043F61413C2F200031A780AB90120187041
S31520000480704700BF43F2F430C2F2000008B503689B
S315200004902BB140F20003C0F2000303B1984708BD18
S315200004A080B400AF45F20003C4F200034FF001020E
S315200004B01A61BFF34F8FBD4680BC704780B582B0AE
S315200004C000AF786043F67C10C2F20000796800F035
S315200004D041FD07F10807BD4680BD00BF80B582B04B
S315200004E000AF78604FF0010000F040FA7868FFF71F
S315200004F0E5FF07F10807BD4680BD00BF80B584B083
S3152000050000AF0346FB714FF0010000F02FFA4FF0C9
S315200005107C033B734FF018037B73FB79BB7307F1A6
S315200005200C0343F67C10C2F2000019464FF003027A
S3152000053000F09EFC07F11007BD4680BD80B584B053
S3152000054000AF0346FB714FF0010000F00FFA4FF0A9
S315200005507C033B734FF019037B73FB79BB7307F165
S315200005600C0343F67C10C2F2000019464FF003023A
S3152000057000F07EFC07F11007BD4680BD80B500AFB8
S315200005804FF0000000F002F880BD00BF80B582B0B9
S3152000059000AF786043F65413C2F200035B68DBB207
S315200005A01846FFF7ABFF43F65413C2F20003DA688E
S315200005B04FF6F873CFF6FF73C2EB0303DBB27A680C
S315200005C0D2B202FB03F3DAB243F65413C2F20003AB
S315200005D09B68DBB2C3EB0203DBB203F17F03DBB222
S315200005E01846FFF7ABFF43F65413C2F200037A68AE
S315200005F01A6007F10807BD4680BD00BF80B584B0EC
S3152000060000AFF860B9607A6043F65413C2F2000373
S31520000610BA689A6043F65413C2F20003FA685A6025
S3152000062043F65413C2F200037A68DA60FFF7A6FF96
S3152000063007F11007BD4680BD90B585B000AF43F6E3
S315200006406413C2F200031B6803F1010243F664132C
S31520000650C2F200031A604FF000033B6007F1040367
S315200006604FF000021A6003F104034FF000021A60F3
S3152000067003F104034FF000021A8003F102034FF046
S3152000068000021A7003F1010343F66413C2F2000359
S315200006901B6803F13B03762B10D83C463B46184695
S315200006A001F0D0FB03462344184643F20031C2F240
S315200006B000014FF0020201F01FFA1AE043F664131C
S315200006C0C2F200031B6848F68902C8F6880282FB3C
S315200006D003121A444FEA62124FEAE373C3EB020392
S315200006E0184600F077F903463A461046194601F0B7
S315200006F027FB3B46184643F20431C2F2000101F0C3
S315200007001FFB43F66413C2F20003196848F68903F7
S31520000710C8F6880383FB01230B444FEA63124FEA92
S31520000720E173C3EB020213464FEA0313C2EB030342
S315200007304FEA8303C3EB0102002A08D13B46184641
S3152000074043F20831C2F2000101F0FAFA6DE043F6F5
S315200007506413C2F20003196848F68903C8F68803B1
S3152000076083FB01230B444FEA63124FEAE173C3EB89
S31520000770020213464FEA0313C2EB03034FEA830335
S31520000780C3EB0102092A2CDC3B46184643F2003112
S31520000790C2F2000101F0D4FA43F66413C2F2000358
S315200007A0196848F68903C8F6880383FB01230B449E
S315200007B04FEA63124FEAE173C3EB020213464FEA94
S315200007C00313C2EB03034FEA8303C3EB0102104674
S315200007D000F000F903463A461046194601F0B0FAF1
S315200007E023E043F66413C2F20003196848F689032E
S315200007F0C8F6880383FB01230B444FEA63124FEAB2
S31520000800E173C3EB020213464FEA0313C2EB030361
S315200008104FEA8303C3EB0102104600F0DBF80346E0
S315200008203A461046194601F08BFA3B46184643F2E3
S315200008300C31C2F2000101F083FA4FF03E004FF076
S3152000084013014FF00002FFF7D9FE3B461846FFF78B
S3152000085045FE07F11407BD4690BD00BF684620F04F
S3152000086007018D4681B583B000AFFFF7E5FE4FF453
S315200008707A737B6003E07B6803F1FF337B607B68E0
S31520000880002BF8DCFFF70CFE07F10C07BD46BDE890
S3152000089081408546704700BF80B483B000AF0346D1
S315200008A0FB804EF20013CEF20003B7F906204FEA82
S315200008B05212F98801F01F014FF0010000FA01F1F0
S315200008C043F8221007F10C07BD4680BC704700BFD5
S315200008D080B483B000AF0346FB804EF20013CEF205
S315200008E00003B7F906204FEA5212F98801F01F01DA
S315200008F04FF0010000FA01F102F1600243F82210E4
S3152000090007F10C07BD4680BC704700BF684620F043
S3152000091007018D4689B500AF43F21030C2F20000C0
S3152000092001F0F2F943F67813C2F200034FF0010208
S315200009301A604FF01F00FFF7CBFFBD46BDE8894088
S315200009408546704780B500AF4FF01F00FFF7A4FF24
S3152000095043F67813C2F200034FF000021A6043F206
S315200009602830C2F2000001F0CFF9FEE780B483B050
S3152000097000AF0346FB7140F20003C4F20503FA7987
S315200009801A6007F10C07BD4680BC704780B485B05D
S3152000099000AF78604FF00003FB6011E0FB6803F1C5
S315200009A00103FB607A6846F26763C6F2666383FBDF
S315200009B002134FEAA3014FEAE273C3EB01037B6004
S315200009C07B68002BEADCFB68184607F11407BD4656
S315200009D080BC704780B584B000AF78604FF00003CC
S315200009E0FB607B68002B07DA7B68C3F100037B6022
S315200009F0FB6803F10103FB607868FFF7C7FF034636
S31520000A00FA681344FB60FB6803F10103184600F003
S31520000A1099FD0346BB60FA68BB6813444FF0000299
S31520000A201A7031E0FB6803F1FF32BB6802EB03006A
S31520000A30796846F26763C6F2666383FB01234FEA51
S31520000A40A3024FEAE173C3EB020213464FEA830384
S31520000A5013444FEA4303C3EB0102D3B203F130033D
S31520000A60DBB203707A6846F26763C6F2666383FB7D
S31520000A7002134FEAA3014FEAE273C3EB01037B6043
S31520000A80FB6803F1FF33FB607B68002BCADCFB6845
S31520000A90012B03D1BB684FF02D021A70BB68184694
S31520000AA007F11007BD4680BD80B483B000AF7860E3
S31520000AB04FF0FF33184607F10C07BD4680BC704740
S31520000AC080B483B000AF7860FEE700BF80B483B007
S31520000AD000AF786039603B684FF400525A604FF09F
S31520000AE00003184607F10C07BD4680BC704700BFBF
S31520000AF080B483B000AF78604FF00103184607F149
S31520000B000C07BD4680BC704780B485B000AFF86046
S31520000B10B9607A604FF00003184607F11407BD4606
S31520000B2080BC704780B485B000AFF860B9607A6049
S31520000B304FF00003184607F11407BD4680BC7047E6
S31520000B4080B584B000AFF860B9607A603B6043F648
S31520000B501813C2F200031B68002B10D143F6A41011
S31520000B60C2F200004FF461414FF0030200F07EF81C
S31520000B7043F61813C2F200034FF001021A603B68D5
S31520000B8043F6A410C2F2000079681A4600F070F904
S31520000B903B68184607F11007BD4680BD80B584B076
S31520000BA000AF786043F61C13C2F200031B68002BCB
S31520000BB008D143F61C13C2F2000343F6D012C2F248
S31520000BC000021A6043F61C13C2F200031B68BB60C6
S31520000BD0EFF30883FB6043F61C13C2F200031A6886
S31520000BE07B681A44FB689A420FD94FF000004FF0F9
S31520000BF0010143F23C32C2F200024FF01903FFF723
S31520000C009FFF4FF00100FFF75BFF43F61C13C2F274
S31520000C1000031A687B681A4443F61C13C2F20003C9
S31520000C201A60BB68184607F11007BD4680BD00BF95
S31520000C3080B483B000AF0346FB804EF20013CEF2A1
S31520000C400003B7F906204FEA5212F98801F01F0176
S31520000C504FF0010000FA01F102F1600243F8221080
S31520000C6007F10C07BD4680BC704700BF80B588B031
S31520000C7000AFF860B9601346FB714FF00103FB82A9
S31520000C804FF00003BB61FA6843F6A413C2F20003D7
S31520000C909A4207D0FA6843F67C13C2F200039A42BE
S31520000CA000D000BEBB68002B00D100BE00F0FEFACB
S31520000CB0FA6843F6A413C2F200039A422ED1FB68C7
S31520000CC04FF080421A60FB684FF084425A60FB68FE
S31520000CD04FF00A021A8143F20043C2F200031B6856
S31520000CE0BB6142F20003CEF2040342F20002CEF2CE
S31520000CF00402126B42F080021A634FF00A00FFF7DB
S31520000D0097FF42F20003CEF2040342F20002CEF233
S31520000D100402126B22F080021A6331E0FA6840F274
S31520000D200003C4F201031360FA6840F20003C4F220
S31520000D3020235360FB684FF00B021A8143F20443D1
S31520000D40C2F200031B68BB6142F20003CEF2040329
S31520000D5042F20002CEF20402126B42F480721A634F
S31520000D604FF00B00FFF764FF42F20003CEF20403BC
S31520000D7042F20002CEF20402126B22F480721A634F
S31520000D80FB681B684FF000021A71BB68002B21D04C
S31520000D90BA69BB68B2FBF3F3FB61FB6903F0080396
S31520000DA0002B06D0FB694FEA131303F10103FB6105
S31520000DB003E0FB694FEA1313FB61FA694FF6FF73F1
S31520000DC09A4200D900BEFA694FF6FF739A4201D8BB
S31520000DD0FB69FB82FB685B684FF00102C3F89C212C
S31520000DE0FB681B68FA8A4FEA122292B2D2B21A71B3
S31520000DF0FB681B68FA8AD2B21A70FB685B684FF0F0
S31520000E000002C3F89C21FB681B68FA791A73FB68F9
S31520000E101B684FF00E021A72FB685B684FF00002E7
S31520000E20C3F81022FB684FF000021A61FB684FF0EE
S31520000E300002DA60FB684FF000025A61FB684FF04F
S31520000E400002DA61FA6841F24113C2F2000313622A
S31520000E50FB684FF000029A61FB684FF000025A626D
S31520000E60FB684FF000029A7207F12007BD4680BD4D
S31520000E7080B489B000AFF860B9607A604FF00003A3
S31520000E803B61FA6843F6A413C2F200039A4207D0E4
S31520000E90FA6843F67C13C2F200039A4200D000BEE1
S31520000EA0BB68002B00D100BE7B68002B00D100BEA2
S31520000EB0FA6843F6A413C2F200039A4206D0FA68EF
S31520000EC043F67C13C2F200039A423DD1BB68002B45
S31520000ED03AD07B68002B37D0FB681B681B7DFB76DE
S31520000EE0FB689A7AFB7E42EA0303DAB2FB689A72BF
S31520000EF0FB7E03F02003002B23D04FF01003FB6171
S31520000F007B680F2B01D87B68FB614FF000037B6168
S31520000F100EE0FB681B68B9683A690A4412781A70B1
S31520000F203B6903F101033B617B6903F101037B61AB
S31520000F307A69FB699A42ECD37A687B69C3EB020330
S31520000F407B607B68002BC7D107F12407BD4680BC98
S31520000F50704700BF80B487B000AF786039604FF02B
S31520000F600003BB607A6843F6A413C2F200039A42D8
S31520000F7007D07A6843F67C13C2F200039A4200D067
S31520000F8000BE3B68002B00D100BE7A6843F6A4134E
S31520000F90C2F200039A4206D07A6843F67C13C2F264
S31520000FA000039A4238D13B68002B35D03A68BB689B
S31520000FB013441B783B612CE07B681B681B7DFB750B
S31520000FC07B689A7AFB7D42EA0303DAB27B689A72DF
S31520000FD0FB7D03F02003002BEED04FF00003FB60D7
S31520000FE011E07B681B683A69D2B21A70FB6803F17C
S31520000FF00103FB60BB6803F10103BB603A68BB6871
S3152000100013441B783B613B69002B02D0FB680F2BF6
S31520001010E7D93B69002BCFD107F11C07BD4680BC21
S31520001020704700BF80B584B000AF78607A6843F619
S31520001030A413C2F200039A4207D07A6843F67C13BF
S31520001040C2F200039A4200D000BE7A6843F6A41387
S31520001050C2F200039A4206D07A6843F67C13C2F2A3
S3152000106000039A4267D17B681B681B7ADBB203F0C8
S315200010700F03FB73FB7B0C2B54D801A252F823F0F1
S31520001080B510002025110020D110002025110020A8
S31520001090ED10002025110020091100202511002027
S315200010A025110020251100202511002025110020C2
S315200010B0ED1000207B685B6A002B00D100BE7B68A8
S315200010C05B6A002B30D07B685B6A7868984732E091
S315200010D07B681B6A002B00D100BE7B681B6A002B35
S315200010E024D07B681B6A7868984724E07B68DB6994
S315200010F0002B00D100BE7B68DB69002B18D07B68F3
S31520001100DB697868984716E07B689B69002B00D1DD
S3152000111000BE7B689B69002B0CD07B689B69786836
S31520001120984708E000BE06E000BF04E000BF02E0EA
S3152000113000BF00E000BF07F11007BD4680BD00BF1D
S3152000114080B487B000AF78607A6843F6A413C2F201
S3152000115000039A4207D07A6843F67C13C2F2000352
S315200011609A4200D000BE7B68DB68002B00D100BE0F
S315200011707B681B69002B00D100BE7A6843F6A41356
S31520001180C2F200039A4206D07A6843F67C13C2F272
S3152000119000039A4252D17B68DB68002B4ED07B68D5
S315200011A01B69002B4AD07B681B681B7DFB727B6802
S315200011B09A7AFB7A42EA0303DAB27B689A72FB7A5E
S315200011C003F02003002B29D04FF010033B617B68EE
S315200011D01A697B685B69C3EB02037B617B690F2B12
S315200011E001D87B693B614FF00003FB6012E07B680E
S315200011F01B687A68D1687A6852690A4412781A702C
S315200012007B685B6903F101027B685A61FB6803F125
S315200012100103FB60FA683B699A42E8D37B685A6906
S315200012207B681B699A4209D17B684FF000021A61DC
S315200012307B685B684FF00002C3F8842007F11C0727
S31520001240BD4680BC704700BF684620F007018D462A
S3152000125089B500AF43F6A410C2F20000FFF7E2FE04
S315200012604FF00A00FFF7E4FCBD46BDE889408546FD
S31520001270704700BF684620F007018D4689B500AF4C
S3152000128043F67C10C2F20000FFF7CCFE4FF00B00B5
S31520001290FFF7CEFCBD46BDE889408546704700BFB6
S315200012A080B400AFBD4680BC704700BF80B58AB011
S315200012B000AF43F25833C2F20003BC460FCB8CE892
S315200012C00F0042F20003CEF204039B6C4FEA930315
S315200012D003F003034FEA830307F12802134453F86C
S315200012E0283C3B6142F20003CEF204039B6C4FEA9A
S315200012F0131303F003034FEA830307F12802134471
S3152000130053F8283C7B6142F20003CEF204039B6C27
S315200013104FEA931303F003034FEA830307F12802EE
S31520001320134453F8283CBB6142F20003CEF2040377
S31520001330DB6C4FEA132303F01F033B6242F20003E8
S31520001340CEF20403DB6C4FEA533303F001037B62D6
S315200013503B6A03F10103FB617B6A002B03D0FB6927
S315200013604FEA4303FB6100F049F8024643F2FC339F
S31520001370C2F200031A6043F2FC33C2F200031A6879
S315200013803B69B2FBF3F243F20043C2F200031A6058
S3152000139043F2FC33C2F200031A687B69B2FBF3F214
S315200013A043F20443C2F200031A6043F2FC33C2F252
S315200013B000031A68BB69B2FBF3F243F20843C2F298
S315200013C000031A6043F2FC33C2F200031A68FB6979
S315200013D0B2FBF3F243F20C43C2F200031A6043F26B
S315200013E0FC33C2F200031A6843F2F833C2F2000358
S315200013F01A6007F12807BD4680BD00BF80B48BB0B8
S3152000140000AF4FF000037B6040F61C03C6F20803D2
S31520001410BB6040F23023C6F20803FB60FB681B6802
S3152000142023F070433B613A6941F2CF13C0F2A153D6
S315200014309A4208D14EF62C73C6F201037B617B6972
S315200014401B687B603DE0BB681A6844F24133C4F6F2
S3152000145054439A4235D140F64003C6F20803BB6195
S31520001460BB691B68FB61FB6923F07F43FB61FA695B
S3152000147040F20033C0F201039A4222D9FA694FF6AC
S31520001480FF73C0F201039A4208D841F22C63C6F2D8
S3152000149008033B623B6A1B687B6012E0FA694FF6E1
S315200014A0FF73C0F202039A4208D841F6AC63C6F233
S315200014B008037B627B6A1B687B6002E04FF00003B7
S315200014C07B607B68002B05D100BE47F64003C0F247
S315200014D07D137B607B68184607F12C07BD4680BCD0
S315200014E0704700BF70B543F2EC3643F2EC35C2F2DA
S315200014F00006C2F20005761BB61006D0002455F869
S31520001500243001349847A642F9D843F2EC3543F209
S31520001510F036C2F20005C2F20006761B01F05AFF31
S31520001520B61006D0002455F8243001349847A64238
S31520001530F9D870BD43F210430146C2F20003186881
S3152000154000F0E8BD43F210430146C2F200031868DA
S3152000155000F000B82DE9F04F01F10B04162C83B0F2
S3152000156006462FD8002310248C422CBF194643F060
S315200015700101002930D1304600F086FBB4F5FC7F0E
S315200015802ED24FEAD40E43F20455C2F2000505EBE3
S31520001590CE02D368934200F006825A6803F108050A
S315200015A0D968304622F0030C9A6863445C688A60E6
S315200015B044F00104D1605C6000F068FB284603B06B
S315200015C0BDE8F08F24F00704E30F8C422CBF1946A8
S315200015D043F001010029CED00C2300253360EDE72E
S315200015E05FEA542E04BF4FEAD40E4FEACE0040F0F5
S315200015F0908043F20455C2F200052818C368984229
S3152000160006D10DE0002A80F26F81DB68984207D070
S31520001610596821F003010A1B0F2AF3DD0EF1FF3E64
S315200016200EF1010E43F20457C2F2000707F108013A
S315200016308B68994208BF7A6826D05A6822F0030C34
S31520001640C4EB0C020F2A00F39481002AC96089603A
S3152000165080F29980BCF5007F80F065814FEADC0C32
S315200016604FF0010A7A6807EBCC004FEAAC0C0AFA75
S315200016700CFCD860D0F808804CEA02027A60C3F8E5
S315200016800880C8F80C3083604FF0010C4FEAAE0397
S315200016900CFA03FC944500F2828012EA0C0F08D162
S315200016A02EF0030E4FEA4C0C0EF1040E12EA0C0F2C
S315200016B0F8D007EBCE09F246C846D8F80C30984544
S315200016C007D168E1002A80F27881DB68984500F02E
S315200016D06281586820F00300021B0F2AF2DD1D46A6
S315200016E01F19D3F80CC044F0010E55F8084F3046A8
S315200016F0BA5042F00102C3F804E0CCF80840C4F81E
S315200017000CC08F60CF607A60B960F96000F0BEFAD5
S3152000171054E7BEF1040F9EBF4FEA941E0EF1380E19
S315200017204FEACE007FF665AFBEF1140F9CBF0EF1D7
S315200017305B0E4FEACE007FF65CAFBEF1540F9EBF24
S315200017404FEA143E0EF16E0E4FEACE007FF651AFF1
S31520001750BEF5AA7F9EBF4FEAD43E0EF1770E4FEA22
S31520001760CE007FF646AF40F254539E4595BF4FEAD2
S31520001770944E4FF47C700EF17C0E4FF07E0E98BF87
S315200017804FEACE0035E703EB0C0203F1080530469D
S31520001790536843F00103536000F078FA0EE7D7F858
S315200017A00880D8F8043023F00309C4EB09024C451D
S315200017B094BF002301230F2AD8BF43F00103002B37
S315200017C000F0A18043F6201BD5F80824C2F2000BB6
S315200017D0DBF8003010331B19B2F1FF3F06D003F5BA
S315200017E07E631F3323F47E6323F01F03194630469E
S315200017F0019300F091FA019BB0F1FF3F824600F081
S31520001800F48008EB0901814200F2EC80DBF8042029
S315200018109A185145CBF8042000F04581D5F8085494
S3152000182043F20450C2F20000B5F1FF3F08BFC0F8F2
S3152000183008A403D05244511ACBF804101AF0070515
S31520001840304617BFC5F108054FF48055AA4405F563
S31520001850805553441B051B0DED1A294600F05CFAF2
S31520001860B0F1FF3F00F02C81CAEB0001491941F08D
S315200018700101DBF8042043F62013C7F808A0C2F2C2
S315200018800003AA18B845CBF80420CAF8041017D0CC
S31520001890B9F10F0F40F2DF80A9F10C01052521F0E7
S315200018A0070108EB01000F2985604560D8F8040080
S315200018B000F0010041EA0000C8F8040000F2AC8004
S315200018C0D04643F62013DBF82C10C2F200038A42DE
S315200018D0DBF8301088BFDA6243F62013C2F2000329
S315200018E08A4288BF1A6382E05C189A68D9683046B3
S315200018F0666803F108058A6046F00103D1606360DB
S3152000190000F0C4F95AE608EB040342F0010244F061
S3152000191001043046C8F8044008F108055A60BB6047
S3152000192000F0B4F94AE64FEA5C22042A54D9142A74
S3152000193000F289805B324FEAC208A84443F204577A
S31520001940C2F20007D8F80800404503D16FE080684E
S31520001950804504D0426822F003029445F7D3D0F89C
S315200019600CC0C3F80CC098607A68C360CCF8083005
S315200019708AE61F19304644F00104CF605C6003F10B
S315200019800805BA5042F001028F607A60B960F960AA
S3152000199000F07CF912E60AF1010A1AF0030F5FD073
S315200019A003F1080889E603F10802D3689A4208BFC2
S315200019B00EF1020E3FF436AEEFE51D461918DA6831
S315200019C0304655F8083F4C68936044F00104DA60CD
S315200019D04C6000F05BF9F1E54FEA9C1238324FEA91
S315200019E0C208AAE7B8453FF411AFD7F80880D8F85F
S315200019F0042022F00302944294BF00230123121BE9
S31520001A000F2AD8BF43F00103002B3FF47CAF3046AA
S31520001A10002500F03BF9D1E508F108013046019395
S31520001A2000F078FB019BD7F808805A6849E74FF009
S31520001A30010AD7F80480921084460AFA02F248EA8C
S31520001A4002027A608DE7542A24D84FEA1C326E327D
S31520001A504FEAC20871E70123D046CAF80430C6E728
S31520001A604A461EF0030F13460EF1FF3E33D053F8BD
S31520001A7008299A42F5D07B684FEA4C0C9C453FF6E4
S31520001A808EAEBCF1000F3FF48AAE1CEA030F27D0BE
S31520001A90D6460EE6B2F5AA7F15D84FEADC32773263
S31520001AA04FEAC20849E70805000D00287FF4B6AEC4
S31520001AB0D7F808804B4443F00103C8F8043000E708
S31520001AC001210025D5E640F2545082420DD94FF42B
S31520001AD07C787E2231E77B6823EA0C037B60CBE7A8
S31520001AE04FEA4C0C0AF1040ACFE74FEA9C427C32BB
S31520001AF04FEAC20821E700BF032A2DE9F0070BD8D9
S31520001B003AB1002311F803C000F803C00133934211
S31520001B10F8D1BDE8F007704782180C46034603E06B
S31520001B2014F8011C03F8011C03F003061946A44609
S31520001B3001330134002EF3D11CF00304634608BFA1
S31520001B40C1EB020C68D06542C4F1040A0CEB050710
S31520001B5033464FEACA0A5CF805604FEAC408551AAC
S31520001B6008E057F8044F264604FA0AF449EA040422
S31520001B70CC5004335C18032D26FA08F9A5F1040588
S31520001B800CEB0306EDDC002302E0F15CE1540133AB
S31520001B9019199142F9D3BCE753F8404C41F8404C0F
S31520001BA053F83C4C41F83C4C53F8384C41F8384CEF
S31520001BB053F8344C41F8344C53F8304C41F8304CFF
S31520001BC053F82C4C41F82C4C53F8284C41F8284C0F
S31520001BD053F8244C41F8244C53F8204C41F8204C1F
S31520001BE053F81C4C41F81C4C53F8184C41F8184C2F
S31520001BF053F8144C41F8144C53F8104C41F8104C3F
S31520001C0053F80C4C41F80C4C53F8084C41F8084C4E
S31520001C1053F8044C41F8044C1C460D4640334031E1
S31520001C20BCF13F0FACF1400CB6DC21462B46541BD1
S31520001C300FE051F8105C43F8105C51F80C5C43F847
S31520001C400C5C51F8085C43F8085C51F8045C43F8D6
S31520001C50045C0F2C0D469C4601F1100103F1100384
S31520001C60A4F11004E5DCCCEB0201002303E0EC58E0
S31520001C704CF8034004335E19032903EB0C04A1F14D
S31520001C800401F4DC7FE700BF704700BF704700BF48
S31520001C9030B5044689B008460D4600F0D3F843F225
S31520001CA070330195C2F2000303930290431C0793FD
S31520001CB00123049301AB0593022306930CB1A36978
S31520001CC0EBB143F210432046C2F200031B689B6827
S31520001CD09A8912F4005F01BF42F400529A81596E2C
S31520001CE021F40052A16808BF5A6605AA00F0F2FA4C
S31520001CF0002814BF4FF0FF300A2009B030BD20461F
S31520001D0000F084F9DDE700BF43F210430146C2F23A
S31520001D1000031868BCE700BF38B543F6CC14C2F2FE
S31520001D2000040546084600232360FEF737FFB0F17E
S31520001D30FF3F00D038BD2368002BFBD02B6038BD79
S31520001D4010F0030F10B5044618BF004611D12368C2
S31520001D502046A3F1013222EA030313F0803F08D183
S31520001D6050F8043FA3F1013222EA030313F0803F27
S31520001D70F6D003781BB110F8013F002BFBD100F001
S31520001D8003F8204610BD00BF80EA0102844612F007
S31520001D90030F4FD111F0030F32D14DF8044D11F03E
S31520001DA0040F51F8043B0BD0A3F101329A4312F0F1
S31520001DB0803F04BF4CF8043B51F8043B16D100BFCA
S31520001DC051F8044BA3F101329A4312F0803FA4F15B
S31520001DD001320BD14CF8043BA24312F0803F04BFE2
S31520001DE051F8043B4CF8044BEAD023460CF8013B4F
S31520001DF013F0FF0F4FEA3323F8D15DF8044B7047F9
S31520001E0011F0010F06D011F8012B0CF8012B002A36
S31520001E1008BF704711F0020FBFD031F8022B12F025
S31520001E20FF0F16BF2CF8022B8CF8002012F47F4FE0
S31520001E30B3D1704711F8012B0CF8012B002AF9D1E8
S31520001E40704700BF20F0030110F00300C0F100002E
S31520001E5051F8043B00F1040C4FEACC0C6FF0000261
S31520001E601CBF22FA0CF213434FF0010C4CEA0C2C47
S31520001E704CEA0C4CA3EB0C0222EA030212EACC1227
S31520001E8004BF51F8043B0430F4D013F0FF0F1FBFFA
S31520001E90013013F47F4F013013F47F0F18BF013048
S31520001EA0704700BF704700BF704700BF704700BF34
S31520001EB0704700BF002070470020704743F2104350
S31520001EC041F6B961C2F20003C2F20001186800F0BF
S31520001ED0C5BB00BF43F2104341F6B561C2F2000311
S31520001EE0C2F20001186800F0B9BB00BF42F6D56106
S31520001EF0C2F2000100F0B2BB43F26833C2F2000323
S31520001F001868F3E710B5044600235C30A181194612
S31520001F10E281082223606360A360636623616361B4
S31520001F20A36100F057FC42F6C94042F68D4142F6C5
S31520001F30654242F65D43C2F20000C2F20001C2F2DF
S31520001F400002C2F200036062A162E262236324629D
S31520001F5010BD00BF70B568250E4605FB01F505F1DD
S31520001F600C01FFF7F7FA044648B100F10C030021F3
S31520001F7046602A4618462160A36000F02BFC2046C6
S31520001F8070BD00BF43F26833C2F2000370B51D680E
S31520001F900646AB69002B2AD0D8356B68AC68013B66
S31520001FA003D520E06834013B1DD4B4F90C20002A67
S31520001FB0F8D100254FF0FF33656604F15C00E3811C
S31520001FC029464FF001032560A3810822A56065609C
S31520001FD025616561A56100F0FDFBE5646563A56388
S31520001FE0A564204670BD286828B10546D5E7284651
S31520001FF000F00CF8D0E730460421FFF7ABFF28604D
S315200020000028F2D10C2304463360EAE770B58669CE
S31520002010044606B170BD41F6ED630125C2F2000308
S31520002020C0F8D8608362C0F8DC60C0F8E0608561E3
S31520002030FFF7A8FF60602046FFF7A4FFA0602046B8
S31520002040FFF7A0FF324604212346E0606068FFF7D1
S3152000205059FF2A46A06809212346FFF753FF234646
S31520002060E06812210222BDE870404BE7F8B543F242
S315200020700454C2F200040F460546FFF705FEA36886
S315200020805E6826F0030606F57E630F33DF1B3F0BE3
S31520002090013F3F03B7F5805F07DB00212846FFF7A6
S315200020A03BFEA368F318834204D02846FFF7EEFDD3
S315200020B00020F8BD79422846FFF72EFEB0F1FF3FFB
S315200020C010D0A26843F62413C2F20003F61B46F092
S315200020D00106284656601A68D71B1F60FFF7D6FDF3
S315200020E00120F8BD00212846FFF716FEA368C21A74
S315200020F00F2ADADD43F60C1443F62411C2F200044B
S31520002100C2F2000142F001022468001B08605A60F6
S31520002110CBE700BF2DE9F04105460C46002900F02B
S315200021208880FFF7B1FDA4F1080243F204505668F7
S31520002130C2F2000026F00103D0F808C0D1188C4561
S315200021404F6827F0030700F0958016F001064F60D0
S315200021505FD00026CC19646814F0010F06D1DB1974
S31520002160002E7AD08C68C9688C60E16043F001014A
S31520002170D3505160002E47D1B3F5007F5BD3590A67
S3152000218004299EBF4FEA931C0CF1380C4FEACC046D
S3152000219028D914299CBF01F15B0C4FEACC0421D924
S315200021A054299EBF4FEA133C0CF16E0C4FEACC0427
S315200021B018D9B1F5AA7F9EBF4FEAD33C0CF1770C14
S315200021C04FEACC040ED940F2545C614595BF4FEAE4
S315200021D0934C4FF47C740CF17C0C4FF07E0C98BF22
S315200021E04FEACC040419A168A14203D164E08968AE
S315200021F08C4204D0486820F003008342F7D3CB6892
S31520002200D3609160CA609A602846BDE8F041FFF726
S315200022103DBD54F8084C00F1080C121B1B1994689C
S31520002220644547D0D2F80CC0CCF80840C4F80CC09E
S3152000223090E7BDE8F081DB084FF0010C466800EB23
S31520002240C3019B100CFA03F3D1608C6846EA0303A2
S3152000225043609460E2608A60D6E78C681C4FBC427B
S3152000226081D1D35043F00103E260A26053609460B1
S31520002270D460C9E7FB1816F0010F07D154F8081CE3
S31520002280521A5B18D4689168A160CC6043F610118D
S315200022908260C2F2000143F0010050600A68934256
S315200022A0B2D343F620132846C2F200031968FFF77B
S315200022B0DDFEA9E701264DE7012644684FEAAC0C6E
S315200022C00B4606FA0CFC44EA0C04446098E700BF6F
S315200022D00C3500202DE9F04F936885B090460C46CA
S315200022E00390002B64D088891FFA80FA1AF0080F11
S315200022F000F0A0800B69002B00F09C801AF0020BE6
S31520002300D8F800501CBF4FF0000A574636D11AF0B5
S31520002310010A1DBFDC46D9465F46564652D126B332
S3152000232080B2A76810F4007F00F08F80BE42BB46C3
S3152000233080F0A78020683746B3465A46514600F0BB
S31520002340EDF9A2682368B146D71BA76037465B44E0
S315200023502360D8F80830C9EB0606CA44DF1BC8F844
S3152000236008702FB3A089002EDAD1D5F800A06E68A8
S315200023700835D4E7D5F800A06F680835B7F5806F23
S3152000238034BF3B464FF4806352460398002FF1D06A
S31520002390A66A216AB04700288244C0EB070740F3AB
S315200023A0EC80D8F80830181AC8F808000028E5D1BB
S315200023B0002005B0BDE8F08FD5F800904FF0000C56
S315200023C06F680835002FF7D0BCF1000F00F0B580FC
S315200023D06369BB4534BFDA46BA46A66820682269D7
S315200023E09E19904294BF00220122B245D4BF0022FA
S315200023F002F00102002A40F0AE809A45C0F28280A7
S31520002400A66A4A46CDF804C00398216AB047DDF88B
S3152000241004C0061E40F3B180BBEB060B00F086809D
S31520002420D8F80830B144BF1B9E1BC8F80860002EA0
S31520002430C8D1BDE70398214600F058FC002840F09B
S31520002440D480A0891FFA80FA58E72068B946236904
S31520002450984294BF00230123B7422CBF002303F0E8
S315200024600103002B40F09D8063699E42C0F08C8062
S31520002470A76A52460398216AB847071E7DDDB946EA
S3152000248067E710F4906F08BF20683FF456AF626983
S315200024902169236802EB42095B1A09EBD97903F11A
S315200024A0010CB4444FEA6909E1454A463CBFE1467E
S315200024B04A4610F4806F00F08380114603980293F9
S315200024C0FFF748F8029B002800F099801A462169F8
S315200024D002930190FFF710FBA289029BDDF804C04E
S315200024E022F4906242F08002A281C3EB09020CEB37
S315200024F003003746B346A260C4F810C02060C4F873
S3152000250014901AE7524649465646CDF804C000F0C4
S3152000251005F9A2682368BBEB060BCAEB0202DDF8BD
S3152000252004C05344A26023607FF47AAF0398214607
S3152000253000F0D8FC08BBDC4672E748460A213A463A
S3152000254000F0B2F800284BD000F1010B4FF0010C3F
S31520002550C9EB0B0B3CE749463246CDF804C000F0E8
S31520002560DDF82368214603989B19236000F0BAFC06
S31520002570DDF804C000283FF44FAFA3894FF0FF30A9
S3152000258043F04003A38114E73246514600F0C6F8D3
S31520002590A26823683746921BB1469B19A260236026
S315200025A0D7E651463A4600F0B9F823680398214603
S315200025B0DB19236000F096FC00283FF4CAAEDCE766
S315200025C00398029300F070F9029B844600288CD170
S315200025D021690398FFF79EFD03990C230B60CCE736
S315200025E007F1010B4FF0010CF2E603990922A389AA
S315200025F04FF0FF3043F040030A60A381D9E6039AE7
S315200026000C231360B9E700BF2DE9F84507468A4633
S31520002610FFF748FC17F1D80608BFB04618D04FF090
S3152000262000087568B468013D0FD4B4F90C304BB17D
S31520002630B4F90E3021463846B3F1FF3F02D0D047D9
S3152000264048EA00086834013DEFD53668002EE8D107
S31520002650FFF72AFC4046BDE8F88500BF2DE9F0418A
S3152000266006468846FFF71EFCD83608BF374615D0E3
S3152000267000277568B468013D0DD4B4F90C303BB120
S31520002680B4F90E302046B3F1FF3F01D0C0470743CF
S315200026906834013DF1D53668002EEAD1FFF704FCF7
S315200026A03846BDE8F08100BF10F0030FC9B210B460
S315200026B010D0002A2FD003788B422AD0013A05E089
S315200026C0002A28D00378013A8B4222D0013010F01C
S315200026D0030FF5D1032A11D941EA012444EA04441F
S315200026E0036884EA0303A3F1013C2CEA030313F0F5
S315200026F0803F03D1043A0430032AF1D85AB1037833
S315200027008B4206D0013A32B110F8013F013A8B4292
S31520002710F9D110BC70470020FBE700BF88428C46E9
S3152000272070B4054614460ED98B1898420BD242B186
S31520002730C2EB030C0146531E1CF80320CA54013B6E
S31520002740FAD270BC70470F2A09D8002CF9D0002382
S315200027501CF80320EA540133A342F9D1F1E741EAF8
S31520002760000313F0030FF0D194460C460346256868
S31520002770ACF1100C1D6065685D60A5689D60E5681C
S315200027801034DD601033BCF10F0FF0D8103A4FEA49
S31520002790121C0CF10105CCEB0C7C2D0102EB0C1666
S315200027A001EB050C4519032E3446CED900235CF8DF
S315200027B00320EA500433F21A032AF8D8043EB30859
S315200027C05A1CC3EB83739200944406EB8304AD1822
S315200027D0BBE700BF032AC9B230B407D822B1002311
S315200027E0C15401339342FBD130BC704700EB020C3D
S315200027F0034601E003F8011C03F003041A460133E3
S31520002800002CF7D14FF00133C2EB0C0403FB01F38C
S315200028101FE042F8403C42F83C3C42F8383C42F843
S31520002820343C42F8303C42F82C3C42F8283C42F8F2
S31520002830243C42F8203C42F81C3C42F8183C42F822
S31520002840143C42F8103C42F80C3C42F8083C42F852
S31520002850043C154640323F2CA4F14004D9DC2A46DC
S31520002860C5EB0C0407E042F8103C42F80C3C42F859
S31520002870083C42F8043C154610320F2CA4F11004F3
S31520002880F1DC2A46C5EB0C0501E042F8043C14466F
S315200028900432032DA5F10405F7DC01E004F8011B41
S315200028A06445FBD3A0E700BF2DE9F04F914683B0E6
S315200028B007460E46002900F03A81A1F1080809F1E1
S315200028C00B04FFF7E1F9162CD8F804100B4600F29A
S315200028D0A0801022002514464C4538BF45F001053E
S315200028E0002D40F02A8121F0030A9245A2BF4046DE
S315200028F0554608F1080875DA43F2045308EB0A0036
S31520002900C2F20003D3F808E0864500F01A81D0F819
S3152000291004C02CF0010B8344DBF804B01BF0010F3C
S315200029207CD0AC46284611F0010F40F09B8056F82B
S31520002930081CC1EB080BDBF8045025F00305002822
S3152000294000F0DD80704500F01F8105EB0A030CEBDB
S3152000295003059542B8BF1D46C0F2D28081685B460A
S31520002960C068AAF10402242A8160C86053F8081FAF
S31520002970DBF80C008160C86000F2D080132A9C46E8
S3152000298021D931460BF1100C51F8040BCBF8080075
S3152000299070680E1D1B2ACBF80C0014D94868311D0F
S315200029A00BF1180CCBF8100070680E1D242ACBF8FA
S315200029B0140008D14A680BF1200CCBF81820726855
S315200029C00836CBF81C20314698466246584651F8C0
S315200029D0043B42F8043B7368CCF804304B685360E0
S315200029E0DBF80430C4EB050CBCF10F0F26D84219D6
S315200029F003F0010343EA05054560536843F00103EC
S31520002A00536038464546FFF741F9284603B0BDE8EE
S31520002A10F08F24F007042246E50F5DE72CF0030C27
S31520002A200CEB0A059542FFF67EAF82680B46C1681D
S31520002A30404608F108088A60D160D3E7011903F0FF
S31520002A40010301EB0C0243EA04044CF00103446049
S31520002A504B6038465368083143F001035360FFF753
S31520002A6059FBCEE749463846FEF774FD0546002851
S31520002A7041D0D8F80430A0F1080223F001014144E6
S31520002A808A4200F0D780AAF104023146242A78D857
S31520002A90132A034621D9344654F8043B211D40F815
S31520002AA0043B031DD6F804C01B2AC5F804C014D95C
S31520002AB0D4F804E01C1D01F1040CC0F804E04868B9
S31520002AC00CF104015860231D242A06D1DCF80420C9
S31520002AD062604A6808315A60083308461A4650F838
S31520002AE0044B42F8044B49685960436853603146A9
S31520002AF03846FFF70FFB3846FFF7C8F885E75544F9
S31520002B009542AFDB5B46DBF80C00AAF1040253F8D2
S31520002B10081F242A8160C8607FF630AF18463146E8
S31520002B209846FFF7FBFD5846DBF804305AE7114676
S31520002B3003B0BDE8F04FFEF70DBD0C2300253B602A
S31520002B4063E7DEF8045004F1100B25F0030C0CEBC0
S31520002B500A005845B8BF7046FFF6E5AE08EB0402FA
S31520002B60011B41F001019A6051603846D8F80410E3
S31520002B70354601F001031C43C8F80440FFF786F8E8
S31520002B8043E7FFF7CBFDB2E7554404F11001AC440F
S31520002B908C45B5DB5D46DBF80C00AAF1040255F83E
S31520002BA0081F242A8160C8604CD8132A284624D9B5
S31520002BB031460BF1100051F804EBCBF808E0D6F8BB
S31520002BC004E00E1D1B2ACBF80CE016D9D1F804E040
S31520002BD0311D0BF11800CBF810E0D6F804E00E1DDD
S31520002BE0242ACBF814E008D14A680BF12000CBF850
S31520002BF0182072680836CBF81C203146024651F858
S31520002C0004EB42F804EB76684660496851600BEBAA
S31520002C100402C4EB0C0141F001019A605160384670
S31520002C20DBF8041001F001031C43CBF80440FFF746
S31520002C302DF8EAE65568404608F1080825F0030510
S31520002C405544CFE6314628460093CDF804C0FFF719
S31520002C5065FDDDF804C0009BD9E700BFB1F90E1071
S31520002C6000F0C6B810B50C46B1F90E1000F0F6F912
S31520002C70A389B0F1FF3F15BF606523F4805343F469
S31520002C808053A38118BFA38110BD00BF2DE9F04159
S31520002C901D468B890C461646074613F4807F06D0C0
S31520002CA00223B1F90E10002200F0D8F9A38923F4EB
S31520002CB080533846A3813246B4F90E102B46BDE820
S31520002CC0F041FDF73DBF00BF10B50C46B1F90E101F
S31520002CD000F048FA002803DB636D1B18636510BDFE
S31520002CE0A38923F48053A38110BD00BF70B543F29E
S31520002CF01045C2F2000506460C46286810B18369C5
S31520002D00002B36D043F27433C2F200039C4238D0F3
S31520002D1043F29433C2F200039C4241D043F2B433CF
S31520002D20C2F200039C4204BF2B68DC68A2891146CC
S31520002D3093B213F0080F184618BF226933D01AB37E
S31520002D4013F0010107D063690021A1605B42A361F2
S31520002D5042B1002070BD13F0020F08BF6169A16067
S31520002D60002AF6D1A38913F0800FF2D04FF0FF305E
S31520002D7070BDFFF74BF943F27433C2F200039C4255
S31520002D80C6D12B685C68D1E703F42071B1F5007FCA
S31520002D90D6D03046214600F077F9A3892269CFE7BD
S31520002DA02B689C68C2E713F0100FDFD013F0040FD6
S31520002DB008BF226917D0616B51B104F144039942CF
S31520002DC003D03046FFF7A6F9A28990B200236363A9
S31520002DD022694FF6DB71C0F20001002300EA0101EF
S31520002DE06360A181226041F00803A3819BB2A6E71C
S31520002DF038B543F6CC14C2F2000405460846002333
S31520002E002360FDF751FEB0F1FF3F00D038BD2368A7
S31520002E10002BFBD02B6038BD70B505460C4600292B
S31520002E204BD0FFF73FF815B1AB69002B48D043F2E2
S31520002E307433C2F200039C4208BF6C680ED043F282
S31520002E409433C2F200039C4208BFAC6806D043F21A
S31520002E50B433C2F200039C4208BFEC68B4F90C609C
S31520002E603EB32846214600F03DF8236B06463BB18B
S31520002E702846216A984736EA200628BF4FF0FF36B3
S31520002E80A38913F0800F1FD1616B41B104F1440374
S31520002E90994202D02846FFF73DF900236363A16CCF
S31520002EA021B12846FFF736F90023A3644FF000032B
S31520002EB0A381FEF7F9FF304670BD0E46304670BD41
S31520002EC02846FFF7A3F8B2E728462169FFF722F93B
S31520002ED0DAE700BF43F210430146C2F20003186846
S31520002EE09AE700BF0B692DE9F0410C468046002B7E
S31520002EF071D010B18369002B78D043F27433C2F2BB
S31520002F0000039C4208BFD8F8044010D043F2943303
S31520002F10C2F200039C4208BFD8F8084007D043F20B
S31520002F20B433C2F200039C4208BFD8F80C40A389F0
S31520002F301AB212F0080F35D1626843F40063A381F8
S31520002F40002A5EDDE66A002E45D09BB213F480523D
S31520002F5018BF656D59D013F0040F4AD1002340469F
S31520002F60216A2A46B047854238D1A1894FF2FF739C
S31520002F702269C0F2000301EA03030021616013F411
S31520002F80805F616BA381226018BF656519B304F168
S31520002F904403994202D04046FFF7BCF80020606304
S31520002FA0BDE8F0812669B6B125682660AD1B12F012
S31520002FB0030F0CBF63690023A3600AE032462B4649
S31520002FC0A76A4046216AB8470028C0EB0505064493
S31520002FD004DD002DF2DC0020BDE8F081A3894FF04E
S31520002FE0FF3043F04003A381BDE8F081FFF70EF8E0
S31520002FF083E76268636BAD1A002BAFD0236CED1AA2
S31520003000ACE7226C002A9DDCE5E701234046216AD5
S31520003010B047B0F1FF3F054602D0A389E66A9AE79A
S31520003020D8F800301D2BD6D0A38943F04003A381C6
S31520003030BDE8F081014628B143F21043C2F20003F5
S3152000304018684FE743F2683342F6E561C2F200039F
S31520003050C2F200011868FFF7D7BA00BF38B543F6A9
S31520003060CC14C2F200040546084611461A4600232F
S315200030702360FDF749FDB0F1FF3F00D038BD23683E
S31520003080002BFBD02B6038BD8B89F0B50C469AB24D
S3152000309091B012F0020F054641D1B1F90E10002968
S315200030A018DB01AA00F074F8002811DB029B03F458
S315200030B07043B3F5005F14BF00270127B3F5004F17
S315200030C040D0A3894FF4806643F40063A3810BE0CC
S315200030D0A3899AB212F0800F43F400630CBF4FF419
S315200030E0806640260027A38128463146FEF732FA1D
S315200030F070B1A18941F6ED62C2F20002206141F071
S3152000310080016661AA62A18120607FB911B0F0BDFD
S31520003110A38913F4007FF9D143F00203A38104F1BC
S3152000312047032361236001236361EFE72846B4F94F
S315200031300E1000F043F80028E8D0A38943F00103DD
S31520003140A381E3E742F66543E26AC2F200039A42AC
S31520003150B7D1A2894FF480631E46236542EA030352
S31520003160A381C1E738B543F6CC14C2F20004054664
S31520003170084611461A4600232360FDF7D3FCB0F11A
S31520003180FF3F00D038BD2368002BFBD02B6038BD15
S3152000319038B543F6CC14C2F200040546084611465B
S315200031A000232360FDF792FCB0F1FF3F00D038BD2D
S315200031B02368002BFBD02B6038BD00BF38B543F603
S315200031C0CC14C2F200040546084600232360FDF70E
S315200031D08FFCB0F1FF3F00D038BD2368002BFBD019
S315200031E02B6038BD57656C636F6D6520746F204307
S315200031F06172696F4D6172740000000043617269EB
S315200032006F4D6172742069732074686520677265DA
S31520003210617465737400000045454353203337338A
S315200032202070726F6A65637420617420746865000B
S315200032306578706F7369746F6E2E0000546F2070FE
S315200032406C61792C2067726162206120636F6E74D5
S31520003250726F6C6C65720000616E642075736520F8
S3152000326074696C7420636F6E74726F6C7320746FE4
S3152000327000000000737465657220616E64207468B6
S315200032806520627574746F6E20746F006163636568
S315200032906C65726174652E20546F20626567696E55
S315200032A02C00000070726573732074686520627547
S315200032B074746F6E206F6E207468650063656E741B
S315200032C0657220636F6E736F6C652E004C6561644A
S315200032D06572626F61726400312E0000322E00002A
S315200032E0506C61796572203100000000506C617964
S315200032F06572203200000000303A30303A3000004B
S31520003300300000003A000000303000003A30000063
S31520003310496E746572727570742074726967676518
S315200033207265640D0000000053797374656D204941
S315200033306E697469616C697A65640D0048656170AF
S3152000334020616E6420737461636B20636F6C6C699B
S3152000335073696F6E0A000000010000000200000081
S315200033600400000001000000143400204300000087
S315200033700A0000000000000000000000000000001D
S315200033800000000000000000000000000000000017
S315200033900000000000000000000000000000000007
S315200033A000000000000000000000000000000000F7
S315200033B000000000000000000000000000000000E7
S315200033C000000000000000000000000000000000D7
S315200033D000000000F8B500BFF8BC08BC9E46704748
S315200033E0F8B500BFF8BC08BC9E467047850400208F
S309200033F0710400201E
S315200033F40000000040787D0140787D01105E5F006A
S31520003404105E5F00105E5F00105E5F0014340020C3
S31520003414000000007433002094330020B4330020CD
S315200034240000000000000000000000000000000072
S315200034346C330020000000000000000000000000A3
S315200034440000000000000000000000000000000052
S315200034540000000000000000000000000000000042
S315200034640000000000000000000000000000000032
S315200034740000000000000000000000000000000022
S315200034840000000000000000000000000000000012
S315200034940000000000000000000000000000000002
S315200034A400000000000000000000000000000000F2
S315200034B400000000000000000000000000000000E2
S315200034C400000000000000000000000000000000D2
S315200034D400000000000000000000000000000000C2
S315200034E400000000000000000000000000000000B2
S315200034F400000000000000000000000000000000A2
S3152000350400000000000000000435002004350020DF
S315200035140C3500200C3500201435002014350020ED
S315200035241C3500201C35002024350020243500209D
S315200035342C3500202C35002034350020343500204D
S315200035443C3500203C3500204435002044350020FD
S315200035544C3500204C3500205435002054350020AD
S315200035645C3500205C35002064350020643500205D
S315200035746C3500206C35002074350020743500200D
S315200035847C3500207C3500208435002084350020BD
S315200035948C3500208C35002094350020943500206D
S315200035A49C3500209C350020A4350020A43500201D
S315200035B4AC350020AC350020B4350020B4350020CD
S315200035C4BC350020BC350020C4350020C43500207D
S315200035D4CC350020CC350020D4350020D43500202D
S315200035E4DC350020DC350020E4350020E4350020DD
S315200035F4EC350020EC350020F4350020F43500208D
S31520003604FC350020FC35002004360020043600203A
S315200036140C3600200C3600201436002014360020E8
S315200036241C3600201C360020243600202436002098
S315200036342C3600202C360020343600203436002048
S315200036443C3600203C3600204436002044360020F8
S315200036544C3600204C3600205436002054360020A8
S315200036645C3600205C360020643600206436002058
S315200036746C3600206C360020743600207436002008
S315200036847C3600207C3600208436002084360020B8
S315200036948C3600208C360020943600209436002068
S315200036A49C3600209C360020A4360020A436002018
S315200036B4AC360020AC360020B4360020B4360020C8
S315200036C4BC360020BC360020C4360020C436002078
S315200036D4CC360020CC360020D4360020D436002028
S315200036E4DC360020DC360020E4360020E4360020D8
S315200036F4EC360020EC360020F4360020F436002088
S31520003704FC360020FC360020043700200437002035
S315200037140C3700200C3700201437002014370020E3
S315200037241C3700201C370020243700202437002093
S315200037342C3700202C370020343700203437002043
S315200037443C3700203C3700204437002044370020F3
S315200037544C3700204C3700205437002054370020A3
S315200037645C3700205C370020643700206437002053
S315200037746C3700206C370020743700207437002003
S315200037847C3700207C3700208437002084370020B3
S315200037948C3700208C370020943700209437002063
S315200037A49C3700209C370020A4370020A437002013
S315200037B4AC370020AC370020B4370020B4370020C3
S315200037C4BC370020BC370020C4370020C437002073
S315200037D4CC370020CC370020D4370020D437002023
S315200037E4DC370020DC370020E4370020E4370020D3
S315200037F4EC370020EC370020F4370020F437002083
S31520003804FC370020FC370020043800200438002030
S315200038140C3800200C3800201438002014380020DE
S315200038241C3800201C38002024380020243800208E
S315200038342C3800202C38002034380020343800203E
S315200038443C3800203C3800204438002044380020EE
S315200038544C3800204C38002054380020543800209E
S315200038645C3800205C38002064380020643800204E
S315200038746C3800206C3800207438002074380020FE
S315200038847C3800207C3800208438002084380020AE
S315200038948C3800208C38002094380020943800205E
S315200038A49C3800209C380020A4380020A43800200E
S315200038B4AC380020AC380020B4380020B4380020BE
S315200038C4BC380020BC380020C4380020C43800206E
S315200038D4CC380020CC380020D4380020D43800201E
S315200038E4DC380020DC380020E4380020E4380020CE
S315200038F4EC380020EC380020F4380020F43800207E
S31520003904FC380020FC380020FFFFFFFF00000200E7
S705200002993F
